:100000000C94E0000C9408010C9408010C94210954
:100010000C9421090C9421090C9408010C940801FA
:100020000C9408010C9408010C9408010C9408012C
:100030000C9408010C9408010C9408010C9408011C
:100040000C94D7080C9408010C94A5080C947F0814
:100050000C9408010C9408010C9408010C940801FC
:100060000C9408010C94080100407A10F35A00A087
:10007000724E18090010A5D4E80000E87648170071
:1000800000E40B54020000CA9A3B000000E1F505B1
:10009000000080969800000040420F000000A086FB
:1000A00001000000102700000000E803000000002D
:1000B0006400000000000A000000000001000000D1
:1000C00000002C76D888DC674F0823DFC1DFAE59EB
:1000D000E1B1B796E5E3E453C63AE651997696E87E
:1000E000E6C28426EB898C9B62ED407C6FFCEFBC02
:1000F0009C9F40F2BAA56FA5F490055A2AF75C932D
:100100006B6CF9676DC11BFCE0E40D47FEF520E662
:10011000B500D0ED902E0300943577050080841E45
:10012000080000204E0A000000C80C333333330FA0
:10013000986E12831141EF8D2114893BE65516CF3D
:10014000FEE6DB18D1844B381BF77C1D901DA4BB49
:10015000E424203284725E228100C9F124ECA1E5FE
:100160003D2700000000240027002A0000000008AE
:10017000000201000003040700000000000000006E
:1001800000000000230026002900000000002500D8
:1001900028002B00040404040404040402020202E4
:1001A000020203030303030301020408102040803A
:1001B000010204081020010204081020C7097E1162
:1001C00011241FBECFEFD8E0DEBFCDBF23E0A0EBF0
:1001D000B1E001C01D92A639B207E1F711E0A0E03D
:1001E000B1E0EAE2F9E302C005900D92A03BB1074D
:1001F000D9F710E0CFEDD0E004C02197FE010E94B6
:10020000AE17CE3DD107C9F70E94720B0C94881C23
:100210000C940000AF92BF92CF92DF92EF92FF92C8
:100220000F931F93CF93DF936C017B018B01040F1E
:10023000151FEB015E01AE18BF08C017D10759F0BA
:100240006991D601ED91FC910190F081E02DC601FC
:100250000995892B79F7C501DF91CF911F910F91F6
:10026000FF90EF90DF90CF90BF90AF900895FC018A
:10027000538D448D252F30E0842F90E0821B930B0B
:10028000541710F0CF96089501970895FC01918DB1
:10029000828D981761F0A28DAE0FBF2FB11D5D96B4
:1002A0008C91928D9F5F9F73928F90E008958FEF56
:1002B0009FEF0895FC01918D828D981731F0828D0A
:1002C000E80FF11D858D90E008958FEF9FEF089561
:1002D000FC01918D228D892F90E0805C9F4F821BC5
:1002E00091098F739927089580E092E00E94680138
:1002F00021E0892B09F420E0822F0895FC01A48DD0
:10030000A80FB92FB11DA35ABF4F2C91848D90E037
:1003100001968F739927848FA689B7892C93A0891A
:10032000B1898C91837080648C93938D848D9813A4
:1003300006C00288F389E02D80818F7D8083089537
:10034000EF92FF920F931F93CF93DF93EC0181E025
:10035000888F9B8D8C8D98131AC0E889F9898081CC
:1003600085FF15C09FB7F894EE89FF896083E889FF
:10037000F98980818370806480839FBF81E090E0F1
:10038000DF91CF911F910F91FF90EF900895F62E7E
:100390000B8D10E00F5F1F4F0F731127E02E8C8D18
:1003A0008E110CC00FB607FCFACFE889F98980815D
:1003B00085FFF5CFCE010E947E01F1CFEB8DEC0FD2
:1003C000FD2FF11DE35AFF4FF0829FB7F8940B8F7A
:1003D000EA89FB8980818062CFCFCF93DF93EC01E4
:1003E000888D8823B9F0AA89BB89E889F9898C911D
:1003F00085FD03C0808186FD0DC00FB607FCF7CFD9
:100400008C9185FFF2CF808185FFEDCFCE010E94D8
:100410007E01E9CFDF91CF910895833081F028F4F8
:10042000813099F08230A9F008958730A9F08830A2
:10043000C9F08430B1F4809180008F7D03C0809139
:1004400080008F7780938000089584B58F7784BD76
:10045000089584B58F7DFBCF8091B0008F77809316
:10046000B00008958091B0008F7DF9CFCF93DF93D6
:10047000282F30E0F901E459FE4F8491F901E85545
:10048000FE4FD491F901EC56FE4FC491CC23A1F05C
:1004900081110E940D02EC2FF0E0EE0FFF1FE058DB
:1004A000FE4FA591B491EC91ED2381E090E009F429
:1004B00080E0DF91CF91089580E090E0FACFCF9374
:1004C000DF9390E0FC01E855FE4F24918C569E4F3F
:1004D000FC0184918823D1F090E0880F991FFC01E2
:1004E000EE59FE4FA591B491FC01E657FE4FC59120
:1004F000D49161110EC09FB7F8948C91E22FE095D2
:100500008E238C932881E223E8839FBFDF91CF91D4
:1005100008958FB7F894EC91E22BEC938FBFF6CF50
:100520002FB7F8946091F5017091F6018091F70171
:100530009091F8012FBF0895CF93DF93EC018A8546
:100540009B85AC85BD858E839F83A887B9870E94D4
:1005500090026A837B838C839D8381E08983888377
:10056000DF91CF910895CF93DF93EC018E819F812E
:10057000A885B9858A839B83AC83BD830E94900242
:100580006A877B878C879D8781E089838883DF9159
:10059000CF9108952091FB013091FC012817390774
:1005A00071F49091F9018091FA01981741F0E0916E
:1005B000F901F0E0E055FE4F808190E008958FEF63
:1005C0009FEF08950895EF92FF920F931F93CF939B
:1005D000DF93DC015C96ED90FC905D97E114F104F3
:1005E00079F481E090E013969C938E93129790E0BB
:1005F00080E0DF91CF911F910F91FF90EF900895D0
:100600005196ED91FC91529750968C915097982F5E
:1006100090950FB75E962C915E97122F127021FD68
:100620006095F8942081112319F1282B2083E7018C
:100630002197F1F728E0462F50E0308160FF1AC083
:10064000382B3083E7012197F1F7BA01759567954B
:10065000215089F7112381F08081892380830FBF86
:100660005C968D919C910197F1F781E090E0C1CF6C
:100670002923DCCF3923E5CF9081892BEFCF20913F
:10068000FB013091FC012817390771F48091FA01C0
:100690002091F90190E0805C9F4F821B910960E4FA
:1006A00070E00E949A17089590E080E008952091EC
:1006B000FB013091FC0128173907B9F49091F90139
:1006C0008091FA01981789F0E091F901F0E0E05586
:1006D000FE4F80812091F90130E02F5F3F4F2F7353
:1006E00033272093F90190E008958FEF9FEF08954D
:1006F00090E080E00895CF93DF93EC01A881B98169
:10070000EB01E881F9811097F1F03097B1F4EC0139
:100710008C819D81892BC9F08C9190E00BC0DB010D
:1007200014968D919C91892B81F0808190E0919518
:1007300081959109DF91CF910895BF01CD01DF919E
:10074000CF910C94BB19309751F790E080E0F2CF35
:100750002F923F924F925F926F927F928F929F92D1
:10076000AF92BF92CF92DF92EF92FF920F931F93BF
:10077000CF93DF93D82FC92F8B010E942B1324E630
:1007800030E040E050E00E94481649019B01AC0176
:1007900060E876E988E990E00E9438166B017C01F8
:1007A000F80191828082ED2FFC2F2191822F022E61
:1007B000000C990BC0970A97C0F32E3239F51F0130
:1007C00080E8882E86E9982E88E9A82EB12C9AE038
:1007D000492E512C612C712CF101C1911F010C2E5D
:1007E000000CDD0BE097CA30D10580F4C501B401DF
:1007F000A30192010E94481649015A01DE010E949C
:10080000B417C60ED71EE81EF91EE6CFA5E0B0E06D
:10081000A70196010E946A166F5F7F4F8F4F9F4F0F
:1008200023E030E040E050E00E944816F8012283C7
:100830003383448355831682DF91CF911F910F91AB
:10084000FF90EF90DF90CF90BF90AF909F908F90F0
:100850007F906F905F904F903F902F9008951F93DF
:10086000CF93DF93EC0118811D3209F42196CE015C
:100870000E942B139B01AC01A4E6B0E00E946A1613
:10088000AB01BC01FE012991822F022E000C990BB5
:10089000C0970A97B8F32E3231F58181082E000CEB
:1008A000990BC0978A309105F0F4AAE0A89F9001B7
:1008B000A99F300D1124C901330FAA0BBB0B480FA0
:1008C000591F6A1F7B1F8281082E000C990BC0974D
:1008D0008A30910540F4092E000CAA0BBB0B480F7F
:1008E000591F6A1F7B1F1D3239F470956095509512
:1008F00041955F4F6F4F7F4FCB01BA01DF91CF9191
:100900001F9108950F931F93CF93DF93EC0188817C
:100910009981009759F02A813B812617370730F0DB
:1009200081E0DF91CF911F910F9108958B016F5F4F
:100930007F4F0E94F518009759F0998388831B8395
:100940000A832C813D81232B59F7FC011082E8CFCB
:1009500080E0E7CFEF92FF920F931F93CF93DF9347
:100960006115710541F480E0DF91CF911F910F91E6
:10097000FF90EF90089541155105B1F07B01EC0116
:100980000C811D81040F151FB8010E948204882369
:1009900051F3288139818C819D81B701820F931F8A
:1009A0000E94C4191D830C8381E0DECFCF93DF93B7
:1009B00000D0CDB7DEB769831A8241E050E0BE01B6
:1009C0006F5F7F4F0E94AA040F900F90DF91CF912D
:1009D0000895CF93DF93EC0188819981009711F0FE
:1009E0000E946C18198218821D821C821B821A8236
:1009F000DF91CF910895CF93DF93EC01FB0101903C
:100A00000020E9F73197AF01461B570B0E94AA045B
:100A1000811103C0CE010E94E904CE01DF91CF9184
:100A20000895CF93DF93EC01FB01448155816081F0
:100A300071810E94AA04811103C0CE010E94E904C1
:100A4000CE01DF91CF910895EF92FF920F931F9304
:100A5000CF93DF93EC017B018A01BA010E948204EB
:100A600081110BC0CE010E94E904CE01DF91CF912C
:100A70001F910F91FF90EF9008951D830C83B70194
:100A8000888199810E94C419F0CFFB010190002058
:100A9000E9F73197AF01461B570B0C942405EF92F1
:100AA000FF920F931F93CF93DF93CDB7DEB7A1973C
:100AB0000FB6F894DEBF0FBECDBF7C01CB01BA01EB
:100AC000F7011182108213821282158214828E0124
:100AD0000F5F1F4F26E048E00E94F611009789F053
:100AE000BC01C7010E944505A1960FB6F894DEBF70
:100AF0000FBECDBFDF91CF911F910F91FF90EF906F
:100B00000895C7010E94E904EFCFCF93DF93EC0172
:100B1000FB018617970749F06081718161157105A6
:100B200041F0448155810E942405CE01DF91CF918F
:100B300008950E94E904F9CFFC011182108213820A
:100B40001282158214820C948505CF93DF93EC01F9
:100B50000E949C05CE01DF91CF910895EF92FF9204
:100B60000F931F93CF93DF93EC017B0119821882BF
:100B70001B821A821D821C8288E090E00E94D0179E
:100B80008C01B7010E949C05F70186819781F801CD
:100B9000978386831D830C83DF91CF911F910F91E3
:100BA000FF90EF900895FC0111821082138212824F
:100BB00015821482FB0101900020E9F73197AF0103
:100BC000461B570B0C942405FC01808191810097F2
:100BD00011F00C946C180895AF92BF92CF92DF92EF
:100BE000EF92FF920F931F93CF93DF93CDB7DEB7B2
:100BF0002E970FB6F894DEBF0FBECDBF8C016B01F0
:100C000080916A0390916B03D80112969C938E9306
:100C10001197D8011196ED91FC9180916C03909100
:100C20006D038E179F0779F1A0907103B090720346
:100C3000E480F580B701CE0101960E949C05F70182
:100C40008681978198878F83BE016F5F7F4FCE012A
:100C50000996F5010995B601CE0109960E947B031C
:100C60007C01CE0109960E94E405CE0101960E9406
:100C7000E405F7FE08C0D8011196ED91FC9112979A
:100C800082819381C2CFC8012E960FB6F894DEBF41
:100C90000FBECDBFDF91CF911F910F91FF90EF90CD
:100CA000DF90CF90BF90AF9008950F931F93CF9395
:100CB000DF9300D000D000D0CDB7DEB78C0164E860
:100CC00073E0CE0101960E949C05B801CE01019609
:100CD0000E9411056AE271E00E94FB04BC0184E8F5
:100CE00093E00E948505CE0101960E94E4052696B8
:100CF0000FB6F894DEBF0FBECDBFDF91CF911F912D
:100D00000F910895CF92DF92EF92FF92CF93DF93EE
:100D1000CDB7DEB762970FB6F894DEBF0FBECDBF7A
:100D20006CE271E0CE0101960E94D305CE010196DE
:100D30000E945506CE0101960E94E40580919D0215
:100D4000882309F4A4C010929E026091A1027091C0
:100D5000A2028091A3029091A4020E94AA1528E207
:100D60003BE64EE65EE40E9428176B017C01609131
:100D70009F027091A00290E080E00E94AA159B0162
:100D8000AC01C701B6010E94BC16AB01BC01809149
:100D9000A50281117058CE0107960E944F0568E3A5
:100DA00071E0CE0101960E94D305BE01695F7F4FBD
:100DB000CE0101960E94110563E771E00E94FB04D9
:100DC000BC01CE010D960E949C05CE010D960E949D
:100DD0005506CE010D960E94E405CE0101960E94B3
:100DE000E405CE0107960E94E40510929E026091F0
:100DF000A8027091A9028091AA029091AB020E9470
:100E0000AA1528E23BE64EE65EE40E9428176B0135
:100E10007C016091A6027091A70290E080E00E94A0
:100E2000AA159B01AC01C701B6010E94BC16AB011B
:100E3000BC018091AC0281117058CE0107960E94CE
:100E40004F0562E471E0CE0101960E94D305BE0118
:100E5000695F7F4FCE0101960E94110563E771E043
:100E60000E94FB04BC01CE010D960E949C05CE01A0
:100E70000D960E945506CE010D960E94E405CE0106
:100E800001960E94E405CE0107960E94E405809138
:100E9000FF01882371F06DE471E0CE0101960E949C
:100EA000D305CE0101960E945506CE0101960E94FF
:100EB000E4058091FE01882371F06AE571E0CE01BE
:100EC00001960E94D305CE0101960E945506CE01DF
:100ED00001960E94E4058091FD0168E671E08111B0
:100EE00002C065E771E0CE0101960E94D305CE01F4
:100EF00001960E945506CE0101960E94E405629675
:100F00000FB6F894DEBF0FBECDBFDF91CF91FF903B
:100F1000EF90DF90CF900895CF92DF92EF92FF9203
:100F2000CF93C1E080E092E00E946801892B09F430
:100F3000DAC08091730390917403892B09F047C044
:100F40000E94900260938A0370938B0380938C03BA
:100F500090938D036CE471E088E793E00E9445056F
:100F600080E092E00E944601682F80917303909187
:100F700074039C012F5F3F4F3093740320937303DE
:100F80008330910508F0A9C041E0663609F440E0DD
:100F90002430310511F4653619F4442309F44EC0A8
:100FA00010927403109273031092760310927503DB
:100FB0006CE471E088E793E00E9445056CE471E021
:100FC0008EE793E00E94450510927703ABCFC09067
:100FD0008A03D0908B03E0908C03F0908D038CE219
:100FE000C80E81E0D81EE11CF11C0E949002C616BA
:100FF000D706E806F90608F0B3CF6CE471E08EE797
:1010000093E00E94450510927403109273031092AE
:101010007603109275036CE471E088E793E00E9418
:101020004505109277030E94900260938A037093A3
:101030008B0380938C0390938D0392CF0497029738
:1010400020F5109277038EE793E00E94D6048091FA
:10105000730390917403069709F064CF40E150E068
:1010600070E060E080917E0390917F030E941412F3
:101070006A5F7F4F70937603609375036CE471E051
:101080008EE793E00E9445054DCF2730310508F4E7
:1010900049CF80917503909176032817390738F46A
:1010A0001092770388E793E00E94D6043BCF909399
:1010B000740380937303892B09F434CF88E793E09A
:1010C0000E94D60410927403109273031092760358
:1010D00010927503C093770325CF2430310509F0B2
:1010E000ADCF40E058CFCF91FF90EF90DF90CF9001
:1010F00008950E94740181110C948C0708951F9229
:101100000F920FB60F9211242F933F934F935F933B
:101110006F937F938F939F93AF93BF93EF93FF93BF
:1011200080E092E00E947E01FF91EF91BF91AF912C
:101130009F918F917F916F915F914F913F912F91EF
:101140000F900FBE0F901F9018951F920F920FB621
:101150000F9211242F938F939F93EF93FF93E0911E
:101160001002F09111028081E0911602F0911702B5
:1011700082FD1BC09081809119028F5F8F73209137
:101180001A02821741F0E0911902F0E0E050FE4FA0
:10119000958F80931902FF91EF919F918F912F91DD
:1011A0000F900FBE0F901F9018958081F4CF1F9263
:1011B0000F920FB60F9211242F933F938F939F930B
:1011C000AF93BF938091F5019091F601A091F70143
:1011D000B091F8013091F40123E0230F2D3758F539
:1011E0000196A11DB11D2093F4018093F501909308
:1011F000F601A093F701B093F8018091F00190916E
:10120000F101A091F201B091F3010196A11DB11D70
:101210008093F0019093F101A093F201B093F30158
:10122000BF91AF919F918F913F912F910F900FBEE2
:101230000F901F90189526E8230F0296A11DB11D4F
:10124000D2CF1F920F920FB60F9211242F933F937C
:101250004F935F936F937F938F939F93AF93BF93BE
:10126000EF93FF93E091FB01F091FC01309749F07F
:10127000A685B7858585968D91FF14C09C9189239D
:10128000A1F4FF91EF91BF91AF919F918F917F91C9
:101290006F915F914F913F912F910F900FBE0F90E3
:1012A0001F9018959C91892361F7A389B4899C911B
:1012B0008589809589238C93868997890197F1F791
:1012C000608D718DA685B785558538E020E0CB010E
:1012D0000197F1F7822F90E095958795282F4C91F3
:1012E000452309F02068315091F7868D81FD2095C6
:1012F0008091FA0190E001968F7399273091F9015E
:10130000381799F0A091FA01B0E0A055BE4F2C9388
:101310008093FA01828D938D0197F1F7A389B489A7
:101320008C919589892B8C93ACCF868D8160868F2B
:10133000F1CF1F93CF93DF93282F30E0F901E459C9
:10134000FE4F8491F901E855FE4FD491F901EC5616
:10135000FE4FC491CC23A9F0162F81110E940D02DB
:10136000EC2FF0E0EE0FFF1FE657FE4FA591B49172
:101370008FB7F894EC91111108C0D095DE23DC935F
:101380008FBFDF91CF911F910895DE2BF8CFCF92C1
:10139000DF92EF92FF92109203021092020298EEF7
:1013A000C92E93E0D92EE12CF12CC0920402D092E8
:1013B0000502E0920602F09207028AE091E0909323
:1013C00001028093000285EC90E090930D028093DF
:1013D0000C0284EC90E090930F0280930E0280EC5C
:1013E00090E0909311028093100281EC90E0909332
:1013F00013028093120282EC90E090931502809386
:10140000140286EC90E090931702809316021092DB
:10141000190210921A0210921B0210921C021092D2
:101420006F0310926E0386E090E00E94D017FC01DB
:1014300011821082138212821582148290936B03A0
:1014400080936A0390936D0380936C0385EA95E023
:1014500090937203809371036CE471E088E793E0EA
:101460000E94D3056CE471E08EE793E00E94D305FF
:101470006CE471E084E893E00E94D30510924D0380
:1014800010924C03C0924E03D0924F03E09250034F
:10149000F09251038CE191E090934B0380934A03C7
:1014A0001092610310926003109263031092620322
:1014B0001092650310926403109267031092660302
:1014C000609168036E7F6D7F6093680366956170BD
:1014D00081E068278BE00E94990961E08BE00E941F
:1014E0005F02E3EBF1E0E491E0935A03EFE9F1E00E
:1014F000E491F0E0EE0FFF1FE657FE4F85919491C7
:1015000090935C0380935B0360E08AE00E945F023B
:101510008091680381FD04C061E08AE00E9499091E
:101520008AE080935603E2EBF1E0E491E093570305
:10153000EEE9F1E0E491F0E0EE0FFF1FE058FE4F1E
:1015400085919491909359038093580310929D0232
:1015500010929E021092A00210929F021092A1027D
:101560001092A2021092A3021092A4021092A5025D
:101570001092A7021092A6021092A8021092A9023D
:101580001092AA021092AB021092AC021092AE021C
:101590001092AD021092AF021092B0021092B102FE
:1015A0001092B2021092B3021092B5021092B402DD
:1015B0001092B6021092B7021092B8021092B902BD
:1015C0001092BA021092BF021092C0021092C10291
:1015D0001092C2021092C3021092C4021092CD0265
:1015E0001092CE021092CF021092D0021092D1022D
:1015F0001092D2021092DB021092DC021092E102F1
:101600001092E2021092E3021092E4021092E902B8
:101610001092EA021092EF021092F0021092F10280
:101620001092F2021092F7021092F8021092FD024C
:101630001092FE021092FF02109200031092050316
:101640001092060310920B0310920C0310920D03DC
:1016500010920E03109213031092140310921903A8
:1016600010921A0310921B0310921C031092210374
:101670001092220382E0809332031092330310927F
:1016800034031092350310923703109236031092F0
:1016900039031092380310923A0310923B031092D0
:1016A0003C0310923D0310923E0310923F031092B0
:1016B0004003109241031092420310924303109290
:1016C0004403109245031092460310924703109270
:1016D00048031092490310922303FF90EF90DF908C
:1016E000CF900895CF93DF93CDB7DEB7E0970FB6D5
:1016F000F894DEBF0FBECDBF789484B5826084BD00
:1017000084B5816084BD85B5826085BD85B5816005
:1017100085BD80916E00816080936E001092810083
:10172000809181008260809381008091810081603E
:1017300080938100809180008160809380008091FF
:10174000B10084608093B1008091B000816080938B
:10175000B00080917A00846080937A0080917A0052
:10176000826080937A0080917A00816080937A0011
:1017700080917A00806880937A001092C10060E0C6
:1017800082E00E945F0260E083E00E945F0260E00E
:1017900084E00E945F02109265031092640310922D
:1017A00063031092620310926103109260038DE94B
:1017B00091E090936703809366039091560396316E
:1017C00008F047C02DEB30E03093610320936003B5
:1017D0002BE931E030936303209362032CE231E084
:1017E00030936503209364032091680084E098306F
:1017F00048F031E09E3008F430E081E001C0880F0D
:101800003A95EAF7822B809368002DE630E0983015
:1018100050F02BE630E09E3030F02CE630E0963190
:1018200010F030E020E030935E0320935D03292F19
:1018300030E0983008F029C281E001C0880F9A9505
:10184000EAF780935F0380916603909167030197A5
:10185000F1F78091640390916503892B49F1E09140
:10186000FB01F091FC0123E0EA34F20709F1309723
:1018700039F0A389B4899C918589809589238C93BB
:10188000809168038E7F809368031092FA01109212
:10189000F9018AE493E09093FC018093FB01E091CD
:1018A0005D03F0915E03808190915F03892B8083BB
:1018B00082E896E090938F0380938E036FEF70E041
:1018C00088E793E00E9482046CE471E08EE793E085
:1018D0000E9445056CE471E088E793E00E944505AD
:1018E0006CE471E084E893E00E9445051092770370
:1018F0001092760310927503109274031092730382
:1019000010928A0310928B0310928C0310928D0315
:10191000E0911002F091110282E08083E0910C02CC
:10192000F0910D021082E0910E02F0910F028FEC07
:10193000808310921802E0911402F091150286E063
:101940008083E0911202F091130280818061808394
:10195000E0911202F0911302808188608083E0910F
:101960001202F0911302808180688083E09112025C
:10197000F091130280818F7D80838E01075E1F4F5F
:10198000AA24A394B12C2EE8E22E21E0F22E33E01B
:10199000632E7724739480917703109277038823C2
:1019A00009F46CC068E773E0CE0101960E949C05C3
:1019B0008D819E81892B51F062E871E089819A8145
:1019C0000E94BB19DD24D394892B09F0D12CCE01C0
:1019D00001960E94E405DD2009F464C1E0918E03C4
:1019E000F0918F03099564E873E0CE0141960E945F
:1019F0009C058E898F938D898F93FF92EF921F9212
:101A00006F921F930F930E94DA19B801CE010996C5
:101A10000E94D30563E971E0CE0101960E94D305CF
:101A2000BE01675F7F4FCE0101960E941105BE0186
:101A30006F5E7F4F0E941105DC0114964D915C9101
:101A400015976D917C9180E092E00E940A01CE0191
:101A500001960E94E405CE0109960E94E405CE019C
:101A600041960E94E4056CE471E084E893E00E94F2
:101A700045050FB6F894DEBF0FBECDBF82E00E94D1
:101A80003602019711F47092FF0183E00E94360242
:101A9000019711F47092FE0184E00E9436020197D2
:101AA00009F033C27092FD0182E0882E8AE493E04F
:101AB0000E943F03181619060CF010C48AE493E044
:101AC0000E945703982E80913A0390913B03A09176
:101AD0003C03B0913D030196A11DB11D80933A03D3
:101AE00090933B03A0933C03B0933D03F4E29F1615
:101AF00009F4D3C3E0913403F9150CF409C22AE0C8
:101B0000921619F08DE09812D5C3EF3008F07EC21E
:101B1000F0E0ED5DFC4F108280912203882309F4F0
:101B200083C220912303822F022E000C990B3FEBDE
:101B3000320F363008F0F9C1C7978295807F9091B7
:101B40002403292F092E000C330B4FEB490F46308D
:101B500008F0F3C127533109820F909121038913B3
:101B600042C28091460390914703A0914803B091EF
:101B700049030196A11DB11D80934603909347032D
:101B8000A0934803B093490380913503882399F0CB
:101B900080913E0390913F03A0914003B091410397
:101BA0000196A11DB11D80933E0390933F03A09326
:101BB0004003B0934103D0903203DD2009F4C6C145
:101BC000B1E0DB1234C08FEB92E00E94B3028DECE7
:101BD00092E00E94B30280913503882341F187E0AF
:101BE000EDEAF2E0AFE9B2E001900D928A95E1F7FB
:101BF00087E0E4EBF2E0A6EAB2E001900D928A956C
:101C0000E1F70E9490026093BB027093BC02809344
:101C1000BD029093BE02D0929E02D0929D028BEDA7
:101C200092E00E949C0289EE92E00E949C02C09089
:101C30003803D0903903C114D10409F4E7C1E0910D
:101C40003803F091390366A177A1F60186A197A127
:101C50000E94BB19892B09F0D9C1B601C601409673
:101C60000E94C4190E949002D60190966D937D93B4
:101C70008D939C93939795967C92959794967C924E
:101C800094979A96CD90DC90D6CF9E3040F4285011
:101C9000310981E001C0880F2A95EAF7D2CD2E5094
:101CA0003109F7CF68E773E0CE0185960E949C0565
:101CB000BE016B5D7F4FCE018E960E94EC05EFA5B5
:101CC000F8A980916C0390916D038E179F0741F0E6
:101CD00064817581CE0185960E947B0397FF6AC05F
:101CE000BE016B5D7F4FCE0141960E949C05188E10
:101CF0001F8AC0907103D0907203BE016F5E7F4F48
:101D0000CE0101960E949C058F89988D98878F83BC
:101D1000BE016F5F7F4FCE010996F6010995BE01A6
:101D2000675F7F4FCE018B960E94EC05CE0109962E
:101D30000E94E405CE0101960E94E405ECA5FDA5F4
:101D400080916C0390916D038E179F0709F06AC014
:101D500080916E0390916F03892BD1F586E090E01E
:101D60000E94D0176C01BE016F5E7F4F0E94AE05CE
:101D7000D0926B03C0926A03E0916C03F0916D0303
:101D8000D182C082D60111961C921E921396FC93AA
:101D9000EE931297B0926F03A0926E03E0916C03E2
:101DA000F0916D03C080D180D8AACFA6CE01419614
:101DB0000E94E405EFA5F8A90480F581E02D0680D6
:101DC000F781E02D0995CE0185960E94E40556CE57
:101DD00086E090E00E94D0176C01BE016F5E7F4FDD
:101DE0000E94AE05E0916C03F0916D0380819181BA
:101DF000D60111969C938E931396FC93EE931297B3
:101E0000A081B1811396DC92CE921297D182C082CA
:101E100080916E0390916F03019690936F0380936E
:101E20006E03BCCF8090710390907203C480D58004
:101E3000B601CE0109960E949C05F6018681978124
:101E4000988B8F87BE01675F7F4FCE014F96F4015D
:101E50000995C0907103D0907203BE016F5E7F4FF1
:101E6000CE0101960E949C058F89988D98878F835B
:101E7000BE016F5F7F4FC801F6010995BE01615E2B
:101E80007F4FC8010E947B036C01C8010E94E405DA
:101E9000CE0101960E94E405CE014F960E94E40512
:101EA000CE0109960E94E4058CA49DA4D7FE2BC008
:101EB00086E090E00E94D0176C01BE016F5E7F4FFC
:101EC0000E94AE05D4018D919C911197F6019183EA
:101ED000808393828282892B89F4D0926B03C09293
:101EE0006A03F401D182C08280916E0390916F03E6
:101EF000019690936F0380936E0356CFED91FC9102
:101F0000D382C282EECF64014FCF1092FD01CCCDBF
:101F10009AE2991609F4F9CDACE29A12CBC18091FC
:101F20002103892580932103F0CD2156263018F412
:101F30008755910902CEC09700CE9156963018F47D
:101F40002755310909CE2053310906CE8DEC92E098
:101F50000E94B30280913503882321F187E0EDEAE6
:101F6000F2E0AFE9B2E001900D928A95E1F787E0E7
:101F7000E4EBF2E0A6EAB2E001900D928A95E1F777
:101F80000E9490026093BB027093BC028093BD02DA
:101F90009093BE0270929E0270929D0287EF92E033
:101FA0000E949C0280910F0390911003A091110355
:101FB000B091120380930B0390930C03A0930D0335
:101FC000B0930E030E94900260930703709308037E
:101FD0008093090390930A0370920603709205039D
:101FE00083E193E022CE8091420390914303A0913C
:101FF0004403B09145030196A11DB11D8093420396
:1020000090934303A0934403B0934503809133031B
:102010008F5F809333031092340381E0FAE29F12C2
:1020200080E08093220342CD90913303911145C00B
:1020300068E971E083E293E00E94BB19892B41F0CB
:102040006EE971E083E293E00E94BB19892BF9F4F9
:102050007092320380913603909137039093390345
:1020600080933803C0903803D0903903C114D10451
:1020700069F263E273E0F60186A197A10E94BB19A1
:1020800097FF34C1D6019A968D919C91E7CF64EA6F
:1020900071E083E293E00E94BB19892B41F06AEA68
:1020A00071E083E293E00E94BB19892B19F410922E
:1020B0003203D0CF80923203CDCFE0913203E230B1
:1020C00009F448C080912303882309F443C0B0E297
:1020D000EB9FF0011124E92B3197E932F10508F06B
:1020E00039C0EB58FF4E0C94AE179E10E010E7106D
:1020F000EE10F1101F11261133114011AA10AA1071
:10210000AA10AA10AA10AA10AA10AA10AA10AA10FF
:10211000AA10AA10AA10AA10AA10AA10AA10AA10EF
:10212000AA10AA10AA10AA10AA109E10DA10E01085
:10213000E710EE10F110F8100511121183E293E090
:102140000E942F046093D3027093D4028093D5022F
:102150009093D602C0903803D09039035090330347
:10216000C114D10409F452CFE0913803F09139033E
:1021700066A177A1F60186A197A10E94BB19892BC0
:1021800009F044CFD60198962D913C91852D90E091
:10219000821793070CF43ACF2817390739F440E136
:1021A00050E063E273E0C6010E94CB19F601C2A4BD
:1021B000D3A4D4CF91E0813409F445C090E043C06A
:1021C0006DEA72E083E293E00E94A803C3CF91E03E
:1021D000833509F090E09093B302BCCF64EB72E0DA
:1021E000F1CF91E0873509F090E09093BA02B2CF39
:1021F00083E293E00E942F046093E5027093E6026D
:102200008093E7029093E802A5CF83E293E00E94D7
:102210002F046093F3027093F4028093F50290937D
:10222000F60298CF83E293E00E942B136093C502DD
:102230007093C6028093C7029093C8028BCF91E03F
:1022400081330CF4BBCF9093350384CF83E293E0CA
:102250000E942B1360930F0370931003809311035C
:102260009093120377CF83E293E00E942F04609350
:102270001D0370931E0380931F03909320036ACF66
:1022800083E293E00E942F046093010370930203A2
:1022900080930303909304035DCF10923403109254
:1022A0003303109221038092320310922203109282
:1022B0003503FCCBEE3040F481E08E0F8093340385
:1022C000F0E0ED5DFC4F9082809122038111EECB16
:1022D00080912103982690922103E8CB0E947401FB
:1022E000882309F458CB0E948C0747CB892B09F42B
:1022F0008DCE109239031092380388CECF93DF939E
:102300008CE191E090934B0380934A038091FB0111
:102310009091FC018A54934071F4E0915D03F09137
:102320005E03908180915F03809589238083109262
:10233000FC011092FB0184E893E00E94E4058EE723
:1023400093E00E94E40588E793E00E94E405E091B1
:102350006A03F0916B0380916E0390916F03892B58
:1023600071F10280F381E02DF0936B03E0936A0337
:102370000190F081E02DC481D581209731F0CE010C
:102380000E94E405CE010E946C18E0916A03F0916E
:102390006B0380819181009711F00E946C18E0918D
:1023A0006A03F0916B031182108280916E03909109
:1023B0006F03019790936F0380936E03C8CFC4811E
:1023C000D581209731F0CE010E94E405CE010E9414
:1023D0006C1880916A0390916B03009721F0DF9154
:1023E000CF910C946C18DF91CF910895EF920F93D9
:1023F0001F93CF93DF93E80134E047FD34E1042ECF
:10240000000C550B57FF03C0519541955109E32E20
:10241000022F242FAE010E947013CE01DF91CF91C5
:102420001F910F91EF900895B0E0A0E0EAE1F2E192
:102430000C9476165C016B017A016115710519F037
:10244000FB0191838083E114F10451F0C7010297ED
:10245000839730F040E030E020E090E072C05E0111
:10246000E5012196F5011081812F90E00E94521321
:10247000892BA9F71D3201F52196F501118101E0A3
:10248000E114F10409F4DAC0F0E1EF16F10409F007
:1024900082C0103359F488818F7D883509F076C069
:1024A000198122960260F0E1EF2EF12C812C912C03
:1024B000A12C88E0B82E8CC01B3221F4E5012296B5
:1024C000F501118100E0DCCFEAE0EE16F10409F439
:1024D000BBC0F0E1EF16F10409F06DC0E7CF78E082
:1024E000E72EF12C812C912CA12C60E1B62E70C02E
:1024F0003FE9310F3A3128F439EA332E80C021E028
:102500009AC0302F3170C114D10431F0222309F167
:102510002197F601D183C08327FF21C060E070E0DE
:1025200080E090E8311104C06FEF7FEF8FEF9FE7FD
:1025300022E230E03093910320939003462F372F0F
:10254000282F642F732F822FCDB7DEB7E1E10C94D3
:10255000921601FF04C02297F601D183C083332372
:1025600041F090958095709561957F4F8F4F9F4F6B
:10257000E5CF97FFE3CF82E290E0909391038093C1
:1025800090036FEF7FEF8FEF9FE7D8CF10E3E11459
:10259000F10409F4A4CF28E0E216F10409F4A2CF73
:1025A0000CF092CF812C912CA12CE0E4BE2E82E085
:1025B000E816F10469F060E070E080E090E89701CF
:1025C0000F2C000C440B550B0E94481649015A0170
:1025D00020E060E070E0CB0127010F2C000C6608C2
:1025E0007708FE0150ED352E310E39E0331540F4F9
:1025F0003FEB310F3A3108F07BCF49EC342E310EEE
:102600003E141F040CF07DCF27FD15C086169706DB
:10261000A806B90678F0A30192010E943816630D4E
:10262000711D811D911D61307105810520E89207A2
:1026300008F465CF2FEF21961081D3CF103309F422
:102640002ACF2AE0E22EF12C9CEC892E982CA82C83
:102650009CE0B92EBDCF1F93FC0199278827BC01B0
:10266000E89411911032E9F3193010F01E30C8F3DC
:102670001B3251F01D3249F4689406C00E945B136E
:10268000610F711D811D911D119110531A30B0F30E
:102690003EF490958095709561957F4F8F4F9F4F39
:1026A0001F91089591110C94A715803219F089504B
:1026B0008550C8F70895592F482F372F262F660FBA
:1026C000771F881F991F660F771F881F991F620F3A
:1026D000731F841F951F660F771F881F991F08950A
:1026E000A9E0B0E0E6E7F3E10C947B166A01F22E74
:1026F000B02E102FFBE3AF2EA01608F41BE31F5FD4
:10270000012F27E0AE014F5F5F4F0E94CF14BC0145
:102710008981982F9970913009F43FC09BE2E1FCC8
:1027200004C09E2D9170E0FC3AC05E2D5071E82FE0
:10273000E87083FF46C084E0911101C083E0EF2D73
:10274000E81B8F1508F0E0E0D6018E2F20E255231C
:1027500051F1992329F0D6019C93C60101966C0191
:1027600096012D5F3F4FE2FE24C08EE4D6018C938C
:1027700091E411969C93119712968C93D9018E2F08
:1027800090E281111BC0E20FF32FF11D10828EEF3A
:102790009FEF2996ECE00C9497169DE2C6CF90E24D
:1027A000C4CF2D9381508111FCCFCE0ED11CE0E01F
:1027B000D0CF8EE6D6018C9391E6DBCF9D938150EE
:1027C000E0CF482F447082FF3DC084E0911101C0EA
:1027D00083E08F1510F4EF2DE81BD6018E2F20E239
:1027E000552309F1992329F0D6019C93C60101963E
:1027F0006C0196012D5F3F4FE2FE1BC089E4D601BC
:102800008C938EE411968C93119786E412968C9398
:10281000D9018E2F90E2882309F4B5CF9D93815082
:10282000FACF2D9381508111FCCFCE0ED11CE0E068
:10283000D9CF89E6D6018C938EE611968C931197A9
:1028400086E6E4CF9B0177FF02C030E020E0A1E004
:10285000B0E0911102C0B0E0A0E0F9013196AE0FF6
:10286000BF1F8B2C912CBB2009F461C05401EFEFEA
:10287000AE1ABE0AAA0DBB1DFA161B0619F014F0FB
:102880004F2D4A1B511188C0E3FC59C07601A42F7B
:10289000B0E2A1114FC0C40ED11C992309F45BC052
:1028A00040E0D6011196F60190836D01552309F49D
:1028B00048C0012F060F9A81582F507184FF03C022
:1028C000913309F4015010160CF047C0093008F09C
:1028D00008E0EEE2FE2E5B01A01AB108850191949A
:1028E000819491082F3F320729F4D601FC92F6011A
:1028F00031966F016217730794F1021713077CF585
:10290000DB01A21BB30BAA24A394B12CAC0EBD1EF9
:10291000AA0DBB1D11968C9121503109D60111963B
:1029200028153905F4F0F60180836D01DBCFB12C59
:10293000A12CA0CFF701B1937F01A150AACF911193
:10294000B0CFD601942F50E302C05D939150911106
:10295000FCCFC40ED11C40E0ACCF01E0BACF80E385
:10296000DBCF6217730731F4963388F4953311F493
:10297000552369F0F6018083FD01842F90E28111D7
:1029800008C0A40FB11D1C9290E080E002CF81E34B
:10299000F1CF91938150F3CF911183CF8ACF28301B
:1029A00008F027E03327DA01990F311D87FD916088
:1029B00000966105710539F432602E5F3D9330E376
:1029C0002A95E1F708959F3F30F080387105610541
:1029D00009F03C5F3C5F3D93913008F08068911DA9
:1029E000DF93CF931F930F93FF92EF92192F987F4E
:1029F0009695E92F96959695E90FFF27EE53FF4F91
:102A000099273327EE24FF24A701E70105900894B6
:102A1000079428F4360FE71EF81E491F511D660F54
:102A2000771F881F991F0694A1F70590079428F433
:102A3000E70EF81E491F561FC11D770F881F991FEB
:102A4000661F0694A1F70590079428F4F80E491F15
:102A5000561FC71FD11D880F991F661F771F069429
:102A6000A1F70590079420F4490F561FC71FD81FE0
:102A7000990F661F771F881F0694A9F784911095F8
:102A8000177041F0D695C79557954795F794E794F9
:102A90001A95C1F7E8E6F0E0689415901591359124
:102AA0006591959105907FE27395E118F10A430BCA
:102AB000560BC90BD009C0F7E10CF11E431F561F7E
:102AC000C91FD01D7EF4703311F48A95E6CFE894C7
:102AD000015030F0080F0AF40027021708F4202FE5
:102AE0002395022F7A3328F079E37D932A95E9F72D
:102AF00010C07D932A9589F606949795679537952A
:102B000017951794E118F10A430B560BC90BD0091E
:102B100098F023957E9173957A3308F070E37C9357
:102B20002013B8F77E9170617D9330F0839571E347
:102B30007D9370E32A95E1F71124EF90FF900F91B8
:102B40001F91CF91DF91992787FD9095089599273F
:102B500088270895E89409C097FB3EF490958095E6
:102B6000709561957F4F8F4F9F4F9923A9F0F92F53
:102B700096E9BB279395F695879577956795B795D1
:102B8000F111F8CFFAF4BB0F11F460FF1BC06F5FB7
:102B90007F4F8F4F9F4F16C0882311F096E911C0C9
:102BA000772321F09EE8872F762F05C0662371F0EA
:102BB00096E8862F70E060E02AF09A95660F771FFE
:102BC000881FDAF7880F9695879597F9089597F9F2
:102BD0009F6780E870E060E008959FEF80EC0895C3
:102BE00000240A94161617061806090608950024EC
:102BF0000A9412161306140605060895092E039466
:102C0000000C11F4882352F0BB0F40F4BF2B11F4D9
:102C100060FF04C06F5F7F4F8F4F9F4F089557FD38
:102C20009058440F551F59F05F3F71F04795880F3A
:102C300097FB991F61F09F3F79F0879508951216D1
:102C400013061406551FF2CF4695F1DF08C016167D
:102C500017061806991FF1CF86957105610508942E
:102C60000895E894BB2766277727CB0197F9089545
:102C7000DB018F939F930E946A16BF91AF91A29F31
:102C8000800D911DA39F900DB29F900D112408956A
:102C9000A1E21A2EAA1BBB1BFD010DC0AA1FBB1F60
:102CA000EE1FFF1FA217B307E407F50720F0A21BD2
:102CB000B30BE40BF50B661F771F881F991F1A943F
:102CC00069F760957095809590959B01AC01BD0169
:102CD000CF0108950E94AC16A59F900DB49F900D52
:102CE000A49F800D911D112408952F923F924F9221
:102CF0005F926F927F928F929F92AF92BF92CF928C
:102D0000DF92EF92FF920F931F93CF93DF93CDB794
:102D1000DEB7CA1BDB0B0FB6F894DEBF0FBECDBF0C
:102D200009942A88398848885F846E847D848C84DD
:102D30009B84AA84B984C884DF80EE80FD800C81E6
:102D40001B81AA81B981CE0FD11D0FB6F894DEBFC9
:102D50000FBECDBFED010895A29FB001B39FC0018A
:102D6000A39F700D811D1124911DB29F700D811DB7
:102D70001124911D08955058BB27AA270E94D316ED
:102D80000C94FE150E94F01538F00E94F71520F003
:102D900039F49F3F19F426F40C94ED150EF4E095E8
:102DA000E7FB0C94E715E92F0E940F1658F3BA17AA
:102DB000620773078407950720F079F4A6F50C9451
:102DC00031160EF4E0950B2EBA2FA02D0B01B90190
:102DD00090010C01CA01A0011124FF27591B99F091
:102DE000593F50F4503E68F11A16F040A22F232F9D
:102DF000342F4427585FF3CF469537952795A795ED
:102E0000F0405395C9F77EF41F16BA0B620B730B93
:102E1000840BBAF09150A1F0FF0FBB1F661F771F04
:102E2000881FC2F70EC0BA0F621F731F841F48F4B9
:102E3000879577956795B795F7959E3F08F0B0CF42
:102E40009395880F08F09927EE0F97958795089529
:102E50000E943C170C94FE150E94F71558F00E9432
:102E6000F01540F029F45F3F29F00C94E71551115B
:102E70000C9432160C94ED150E940F1668F39923EA
:102E8000B1F3552391F3951B550BBB27AA27621766
:102E90007307840738F09F5F5F4F220F331F441F73
:102EA000AA1FA9F335D00E2E3AF0E0E832D09150A7
:102EB0005040E695001CCAF72BD0FE2F29D0660F94
:102EC000771F881FBB1F261737074807AB07B0E8D7
:102ED00009F0BB0B802DBF01FF2793585F4F3AF0DD
:102EE0009E3F510578F00C94E7150C9432165F3F25
:102EF000E4F3983ED4F3869577956795B795F79563
:102F00009F5FC9F7880F911D9695879597F908954A
:102F1000E1E0660F771F881FBB1F621773078407E6
:102F2000BA0720F0621B730B840BBA0BEE1F88F7F5
:102F3000E095089597FB072E16F4009407D077FDCF
:102F400009D00E94BC1707FC05D03EF490958195EE
:102F50009F4F0895709561957F4F0895EE0FFF1F65
:102F60000590F491E02D0994B7FF0C946A160E9425
:102F70006A16821B930B0895AA1BBB1B51E107C065
:102F8000AA1FBB1FA617B70710F0A61BB70B881FF9
:102F9000991F5A95A9F780959095BC01CD01089588
:102FA0000F931F93CF93DF938230910510F482E04B
:102FB00090E0E0919403F091950330E020E0B0E0E0
:102FC000A0E0309799F42115310509F44AC0281B77
:102FD000390B24303105D8F58A819B816115710543
:102FE00089F1FB0193838283FE0111C040815181ED
:102FF0000281138148175907E0F04817590799F4DF
:10300000109761F012960C93129713961C933296B8
:10301000CF01DF91CF911F910F91089500939403F9
:1030200010939503F4CF2115310551F04217530742
:1030300038F0A901DB019A01BD01DF01F801C1CF20
:10304000EF01F9CF9093950380939403CDCFFE01C8
:10305000E20FF31F81939193225031093983288322
:10306000D7CF2091920330919303232B41F42091E9
:103070000201309103013093930320939203209136
:103080000001309101012115310541F42DB73EB702
:103090004091040150910501241B350BE0919203EE
:1030A000F0919303E217F307A0F42E1B3F0B2817B0
:1030B000390778F0AC014E5F5F4F2417350748F0B1
:1030C0004E0F5F1F5093930340939203819391930C
:1030D0009FCFF0E0E0E09CCFCF93DF930097E9F043
:1030E000FC01329713821282A0919403B091950350
:1030F000ED0130E020E01097A1F420813181820FB2
:10310000931F20919203309193032817390709F0F8
:1031100061C0F0939303E0939203DF91CF91089500
:10312000EA01CE17DF07E8F54A815B819E01411570
:103130005105B1F7E901FB83EA8349915991C40F25
:10314000D51FEC17FD0761F4808191810296840FF1
:10315000951FE90199838883828193819B838A8368
:10316000F0E0E0E012968D919C9113970097B9F5ED
:103170002D913C911197CD010296820F931F2091C2
:103180009203309193032817390739F6309751F598
:103190001092950310929403B0939303A09392031B
:1031A000BCCFD383C28340815181840F951FC81740
:1031B000D90761F44E5F5F4F88819981480F591F8D
:1031C000518340838A819B819383828321153105BA
:1031D00009F0B0CFF0939503E09394039ECFFD01E7
:1031E000DC01C0CF13821282D7CFB0E0A0E0EBEFBA
:1031F000F8E10C9477168C01009751F4CB010E94F2
:10320000D0178C01C801CDB7DEB7E0E10C9493165E
:10321000FC01E60FF71F9C0122503109E217F3076A
:1032200008F49DC0D901CD91DC911197C617D7073D
:1032300098F0C530D10530F3CE0104978617970773
:1032400008F3C61BD70B2297C193D1936D937C9340
:10325000CF010E946C18D6CF5B01AC1ABD0A4C019D
:103260008C0E9D1EA0919403B0919503512C412C7E
:10327000F12CE12C109731F58091920390919303FA
:103280008815990509F05CC04616570608F058C025
:103290008091000190910101009741F48DB79EB794
:1032A0004091040150910501841B950BE817F90723
:1032B00008F055C0F0939303E0939203F9017183F2
:1032C0006083A0CF8D919C91119712966C9012976C
:1032D00013967C901397A815B90559F56C0142E037
:1032E000C40ED11CCA14DB0420F1AC014A195B09DD
:1032F000DA011296159780F06282738251834083BF
:10330000D9016D937C93E114F10471F0D701139608
:10331000FC93EE93129776CF22968C0F9D1FF901A6
:1033200091838083F301EFCFF0939503E0939403AF
:1033300069CF4816590608F42C017D01D3019ACFB4
:10334000CB010E94D0177C01009749F0AE01B80173
:103350000E94B219C8010E946C18870153CF10E077
:1033600000E050CFFB01DC0102C001900D92415002
:103370005040D8F70895FB01DC018D910190801930
:103380000110D9F3990B0895FB01DC0101900D9216
:103390000020E1F70895FB01DC014150504048F066
:1033A00001900D920020C9F701C01D92415050407C
:1033B000E0F70895AEE0B0E0E0EEF9E10C9483169A
:1033C0000D891E898F89988D26E02C831A830983A5
:1033D00097FF02C080E090E801979E838D83AE0145
:1033E000455E5F4F698D7A8DCE0101960E940A1A63
:1033F0004D815E8157FD0AC02F81388542175307E2
:103400000CF49A01020F131FF80110822E96E4E0CB
:103410000C949F16ABE0B0E0E0E1FAE10C94751675
:103420007C013B018A01FC0117821682838181FFA6
:10343000C8C1CE0101965C01F7019381F30193FDB0
:10344000859193FF81913F01882309F453C185320F
:1034500039F493FD859193FF81913F01853229F4E1
:10346000B70190E00E94FA1BE7CF912C212C312C60
:10347000FFE1F31538F08B3211F190F4803209F14D
:10348000833229F137FC3CC020ED280F2A3050F55B
:1034900036FE20C08AE0989E200D1124922E06C090
:1034A0008D3291F0803371F7689430F8F30193FD19
:1034B000859193FF81913F018111DACF21C06894FA
:1034C00031F8689432F8F2CF689433F8EFCF68940B
:1034D00034F8ECCFEAE02E9E200D1124222E6894C1
:1034E00035F8E4CF8E3229F436FC04C1689436F8FE
:1034F000DDCF8C3619F4689437F8D8CF8836B1F21E
:10350000982F9F7D95549330E0F08336A1F1833757
:10351000C1F1833509F063C02801F2E04F0E511C60
:10352000F801C080D180692D70E036FC02C06FEFD9
:103530007FEFC6010E94E41B4C01689437F88201BA
:103540000AC00C5F1F4FFFE3F98388248394912CFA
:103550006501E89437F833FE2DC0522C8114910494
:1035600071F5552009F468CFB70180E290E00E9420
:10357000FA1B5A94F6CFF801808189830E5F1F4FA2
:10358000E4CF2801F2E04F0E511CF801C080D18039
:10359000692D70E036FC02C06FEF7FEFC6010E941C
:1035A000EF1B4C018201D5CFB70180E290E00E9471
:1035B000FA1B2A942814190409F0B0F7CECFF601AB
:1035C00037FC859137FE81916F01B70190E00E9431
:1035D000FA1B51105A94F1E08F1A9108BFCF84362C
:1035E00019F0893609F077C0F80137FE6BC06081A9
:1035F0007181828193810C5F1F4FF32DFF763F2EE7
:1036000097FF09C090958095709561957F4F8F4F7A
:103610009F4F689437F82AE030E0A5010E942A1CE9
:10362000C82ECA188C2C432C36FE0CC0E89440F8E7
:10363000C91440F434FE05C032FC03C0F32DFE7EF5
:103640004F2E892C44FE95C0FE01EC0DF11D8081AA
:10365000803309F087C0242D297E422E842D887066
:10366000582E43FC95C040FE8FC09C2C821418F449
:103670002C0C922C981844FE91C0B70180E390E086
:103680000E94FA1B42FE09C088E790E041FE02C09A
:1036900088E590E0B7010E94FA1BC91408F48AC0BB
:1036A000CA94D12C9FEFC91AD90ACA0CDB1CF601A7
:1036B00082916F01B70190E00E94FA1BAC14BD0427
:1036C000B1F74FCF60817181072E000C880B990BE9
:1036D0000E5F1F4F92CFD32CE894D4F82AE030E04D
:1036E000853739F1232D297FD22E8F3601F148F409
:1036F0008835A9F0F701868197812B96E2E10C9439
:103700009116803749F08837A9F7D4FE02C0689433
:10371000D2F820E130E00DC06894D4F8F6CF34FE42
:1037200003C0822F8660D82E20E132E002C028E05C
:1037300030E0F801D7FE0FC06081718182819381F2
:103740000C5F1F4FA5010E942A1CC82ECA183D2CD1
:10375000E89437F867CF6081718190E080E00E5F78
:103760001F4FF0CF42FC02C0839478CF83948394A0
:1037700075CF842D867809F471CFF6CFB70180E23A
:1037800090E00E94FA1B83948214C0F3512C73CFF3
:10379000522C5818821408F46ECFF8CF842D8678F6
:1037A00009F47BCF8BE241FE80E247FC8DE2B7015A
:1037B00090E071CFB70180E390E00E94FA1B9A94E9
:1037C0006CCF8FEF9FEF99CFFC0105906150704057
:1037D0000110D8F7809590958E0F9F1F0895FC01DA
:1037E0006150704001900110D8F7809590958E0F30
:1037F0009F1F08950F931F93CF93DF93182F092FC7
:10380000EB018B8181FD09C01FEF0FEF812F902FFE
:10381000DF91CF911F910F91089582FF14C02E81E7
:103820003F818C819D81281739073CF4E881F9811B
:10383000CF0101969983888310838E819F810196A1
:103840009F838E83E3CFE885F985812F0995892BA6
:10385000A1F3DACFFA01AA27283051F1203181F102
:10386000E8946F936E7F6E5F7F4F8F4F9F4FAF4F88
:10387000B1E03ED0B4E03CD0670F781F891F9A1F9B
:10388000A11D680F791F8A1F911DA11D6A0F711D4F
:10389000811D911DA11D20D009F468943F912AE05B
:1038A000269F11243019305D3193DEF6CF01089543
:1038B000462F4770405D4193B3E00FD0C9F7F6CF74
:1038C000462F4F70405D4A3318F0495D31FD40523C
:1038D000419302D0A9F7EACFB4E0A69597958795D2
:1038E00077956795BA95C9F70097610571050895B1
:1038F0009B01AC010A2E069457954795379527955D
:10390000BA95C9F7620F731F841F951FA01D0895F4
:1039100010E0CFEDD0E004C0FE010E94AE1721966A
:0A392000C03ED107C9F7F894FFCFAD
:10392A0000009603800000000000A0010A01370190
:10393A00ED01680146015A0100000000E3020A0194
:10394A007803E2023F035703CA023B0064657669C3
:10395A0063652862757329006C617469747564659E
:10396A0028006C6F6E6769747564652800706173EE
:10397A00736167657228696E290070617373616784
:10398A006572286F757429006275732873746F7075
:10399A0070656429006275732872756E6E696E6748
:1039AA002900676574506572636570747300253009
:1039BA0032580066666665004750524D4300474ECE
:1039CA00524D4300475047474100474E4747410041
:00000001FF
