:100000000C94E0000C9408010C9408010C943D0938
:100010000C943D090C943D090C9408010C940801C2
:100020000C9408010C9408010C9408010C9408012C
:100030000C9408010C9408010C9408010C9408011C
:100040000C94F3080C9408010C94C1080C949B08C0
:100050000C9408010C9408010C9408010C940801FC
:100060000C9408010C94080100407A10F35A00A087
:10007000724E18090010A5D4E80000E87648170071
:1000800000E40B54020000CA9A3B000000E1F505B1
:10009000000080969800000040420F000000A086FB
:1000A00001000000102700000000E803000000002D
:1000B0006400000000000A000000000001000000D1
:1000C00000002C76D888DC674F0823DFC1DFAE59EB
:1000D000E1B1B796E5E3E453C63AE651997696E87E
:1000E000E6C28426EB898C9B62ED407C6FFCEFBC02
:1000F0009C9F40F2BAA56FA5F490055A2AF75C932D
:100100006B6CF9676DC11BFCE0E40D47FEF520E662
:10011000B500D0ED902E0300943577050080841E45
:10012000080000204E0A000000C80C333333330FA0
:10013000986E12831141EF8D2114893BE65516CF3D
:10014000FEE6DB18D1844B381BF77C1D901DA4BB49
:10015000E424203284725E228100C9F124ECA1E5FE
:100160003D2700000000240027002A0000000008AE
:10017000000201000003040700000000000000006E
:1001800000000000230026002900000000002500D8
:1001900028002B00040404040404040402020202E4
:1001A000020203030303030301020408102040803A
:1001B000010204081020010204081020E3099A112A
:1001C00011241FBECFEFD8E0DEBFCDBF23E0ACECE3
:1001D000B1E001C01D92A23BB207E1F711E0A0E03F
:1001E000B1E0E2E6F9E302C005900D92AC3CB10744
:1001F000D9F710E0CFEDD0E004C02197FE010E94B6
:10020000CA17CE3DD107C9F70E948E0B0C94A41CCF
:100210000C940000AF92BF92CF92DF92EF92FF92C8
:100220000F931F93CF93DF936C017B018B01040F1E
:10023000151FEB015E01AE18BF08C017D10759F0BA
:100240006991D601ED91FC910190F081E02DC601FC
:100250000995892B79F7C501DF91CF911F910F91F6
:10026000FF90EF90DF90CF90BF90AF900895FC018A
:10027000538D448D252F30E0842F90E0821B930B0B
:10028000541710F0CF96089501970895FC01918DB1
:10029000828D981761F0A28DAE0FBF2FB11D5D96B4
:1002A0008C91928D9F5F9F73928F90E008958FEF56
:1002B0009FEF0895FC01918D828D981731F0828D0A
:1002C000E80FF11D858D90E008958FEF9FEF089561
:1002D000FC01918D228D892F90E0805C9F4F821BC5
:1002E00091098F73992708958CE192E00E9468012B
:1002F00021E0892B09F420E0822F0895FC01A48DD0
:10030000A80FB92FB11DA35ABF4F2C91848D90E037
:1003100001968F739927848FA689B7892C93A0891A
:10032000B1898C91837080648C93938D848D9813A4
:1003300006C00288F389E02D80818F7D8083089537
:10034000EF92FF920F931F93CF93DF93EC0181E025
:10035000888F9B8D8C8D98131AC0E889F9898081CC
:1003600085FF15C09FB7F894EE89FF896083E889FF
:10037000F98980818370806480839FBF81E090E0F1
:10038000DF91CF911F910F91FF90EF900895F62E7E
:100390000B8D10E00F5F1F4F0F731127E02E8C8D18
:1003A0008E110CC00FB607FCFACFE889F98980815D
:1003B00085FFF5CFCE010E947E01F1CFEB8DEC0FD2
:1003C000FD2FF11DE35AFF4FF0829FB7F8940B8F7A
:1003D000EA89FB8980818062CFCFCF93DF93EC01E4
:1003E000888D8823B9F0AA89BB89E889F9898C911D
:1003F00085FD03C0808186FD0DC00FB607FCF7CFD9
:100400008C9185FFF2CF808185FFEDCFCE010E94D8
:100410007E01E9CFDF91CF910895833081F028F4F8
:10042000813099F08230A9F008958730A9F08830A2
:10043000C9F08430B1F4809180008F7D03C0809139
:1004400080008F7780938000089584B58F7784BD76
:10045000089584B58F7DFBCF8091B0008F77809316
:10046000B00008958091B0008F7DF9CFCF93DF93D6
:10047000282F30E0F901E459FE4F8491F901E85545
:10048000FE4FD491F901EC56FE4FC491CC23A1F05C
:1004900081110E940D02EC2FF0E0EE0FFF1FE058DB
:1004A000FE4FA591B491EC91ED2381E090E009F429
:1004B00080E0DF91CF91089580E090E0FACFCF9374
:1004C000DF9390E0FC01E855FE4F24918C569E4F3F
:1004D000FC0184918823D1F090E0880F991FFC01E2
:1004E000EE59FE4FA591B491FC01E657FE4FC59120
:1004F000D49161110EC09FB7F8948C91E22FE095D2
:100500008E238C932881E223E8839FBFDF91CF91D4
:1005100008958FB7F894EC91E22BEC938FBFF6CF50
:100520002FB7F8946091110270911202809113021A
:10053000909114022FBF0895CF93DF93EC018A8529
:100540009B85AC85BD858E839F83A887B9870E94D4
:1005500090026A837B838C839D8381E08983888377
:10056000DF91CF910895CF93DF93EC018E819F812E
:10057000A885B9858A839B83AC83BD830E94900242
:100580006A877B878C879D8781E089838883DF9159
:10059000CF9108952091170230911802281739073A
:1005A00071F49091150280911602981741F0E09134
:1005B0001502F0E0E453FE4F808190E008958FEF44
:1005C0009FEF08950895EF92FF920F931F93CF939B
:1005D000DF93DC015C96ED90FC905D97E114F104F3
:1005E00079F481E090E013969C938E93129790E0BB
:1005F00080E0DF91CF911F910F91FF90EF900895D0
:100600005196ED91FC91529750968C915097982F5E
:1006100090950FB75E962C915E97122F127021FD68
:100620006095F8942081112319F1282B2083E7018C
:100630002197F1F728E0462F50E0308160FF1AC083
:10064000382B3083E7012197F1F7BA01759567954B
:10065000215089F7112381F08081892380830FBF86
:100660005C968D919C910197F1F781E090E0C1CF6C
:100670002923DCCF3923E5CF9081892BEFCF20913F
:100680001702309118022817390771F48091160269
:100690002091150290E0805C9F4F821B910960E4DD
:1006A00070E00E94B617089590E080E008952091D0
:1006B00017023091180228173907B9F490911502E2
:1006C00080911602981789F0E0911502F0E0E4534A
:1006D000FE4F80812091150230E02F5F3F4F2F7336
:1006E00033272093150290E008958FEF9FEF089530
:1006F00090E080E00895CF93DF93EC01A881B98169
:10070000EB01E881F9811097F1F03097B1F4EC0139
:100710008C819D81892BC9F08C9190E00BC0DB010D
:1007200014968D919C91892B81F0808190E0919518
:1007300081959109DF91CF910895BF01CD01DF919E
:10074000CF910C94D719309751F790E080E0F2CF19
:100750002F923F924F925F926F927F928F929F92D1
:10076000AF92BF92CF92DF92EF92FF920F931F93BF
:10077000CF93DF93D82FC92F8B010E94471324E614
:1007800030E040E050E00E94641649019B01AC015A
:1007900060E876E988E990E00E9454166B017C01DC
:1007A000F80191828082ED2FFC2F2191822F022E61
:1007B000000C990BC0970A97C0F32E3239F51F0130
:1007C00080E8882E86E9982E88E9A82EB12C9AE038
:1007D000492E512C612C712CF101C1911F010C2E5D
:1007E000000CDD0BE097CA30D10580F4C501B401DF
:1007F000A30192010E94641649015A01DE010E9480
:10080000D017C60ED71EE81EF91EE6CFA5E0B0E051
:10081000A70196010E9486166F5F7F4F8F4F9F4FF3
:1008200023E030E040E050E00E946416F8012283AB
:100830003383448355831682DF91CF911F910F91AB
:10084000FF90EF90DF90CF90BF90AF909F908F90F0
:100850007F906F905F904F903F902F9008951F93DF
:10086000CF93DF93EC0118811D3209F42196CE015C
:100870000E9447139B01AC01A4E6B0E00E948616DB
:10088000AB01BC01FE012991822F022E000C990BB5
:10089000C0970A97B8F32E3231F58181082E000CEB
:1008A000990BC0978A309105F0F4AAE0A89F9001B7
:1008B000A99F300D1124C901330FAA0BBB0B480FA0
:1008C000591F6A1F7B1F8281082E000C990BC0974D
:1008D0008A30910540F4092E000CAA0BBB0B480F7F
:1008E000591F6A1F7B1F1D3239F470956095509512
:1008F00041955F4F6F4F7F4FCB01BA01DF91CF9191
:100900001F9108950F931F93CF93DF93EC0188817C
:100910009981009759F02A813B812617370730F0DB
:1009200081E0DF91CF911F910F9108958B016F5F4F
:100930007F4F0E941119009759F0998388831B8378
:100940000A832C813D81232B59F7FC011082E8CFCB
:1009500080E0E7CFEF92FF920F931F93CF93DF9347
:100960006115710541F480E0DF91CF911F910F91E6
:10097000FF90EF90089541155105B1F07B01EC0116
:100980000C811D81040F151FB8010E948204882369
:1009900051F3288139818C819D81B701820F931F8A
:1009A0000E94E0191D830C8381E0DECFCF93DF939B
:1009B00000D0CDB7DEB769831A8241E050E0BE01B6
:1009C0006F5F7F4F0E94AA040F900F90DF91CF912D
:1009D0000895CF93DF93EC0188819981009711F0FE
:1009E0000E948818198218821D821C821B821A821A
:1009F000DF91CF910895CF93DF93EC01FB0101903C
:100A00000020E9F73197AF01461B570B0E94AA045B
:100A1000811103C0CE010E94E904CE01DF91CF9184
:100A20000895CF93DF93EC01FB01448155816081F0
:100A300071810E94AA04811103C0CE010E94E904C1
:100A4000CE01DF91CF910895EF92FF920F931F9304
:100A5000CF93DF93EC017B018A01BA010E948204EB
:100A600081110BC0CE010E94E904CE01DF91CF912C
:100A70001F910F91FF90EF9008951D830C83B70194
:100A8000888199810E94E019F0CFFB01019000203C
:100A9000E9F73197AF01461B570B0C942405EF92F1
:100AA000FF920F931F93CF93DF93CDB7DEB7A1973C
:100AB0000FB6F894DEBF0FBECDBF7C01CB01BA01EB
:100AC000F7011182108213821282158214828E0124
:100AD0000F5F1F4F26E048E00E941212009789F036
:100AE000BC01C7010E944505A1960FB6F894DEBF70
:100AF0000FBECDBFDF91CF911F910F91FF90EF906F
:100B00000895C7010E94E904EFCFCF93DF93EC0172
:100B1000FB018617970749F06081718161157105A6
:100B200041F0448155810E942405CE01DF91CF918F
:100B300008950E94E904F9CFFC011182108213820A
:100B40001282158214820C948505CF93DF93EC01F9
:100B50000E949C05CE01DF91CF910895EF92FF9204
:100B60000F931F93CF93DF93EC017B0119821882BF
:100B70001B821A821D821C8288E090E00E94EC1782
:100B80008C01B7010E949C05F70186819781F801CD
:100B9000978386831D830C83DF91CF911F910F91E3
:100BA000FF90EF900895FC0111821082138212824F
:100BB00015821482FB0101900020E9F73197AF0103
:100BC000461B570B0C942405FC01808191810097F2
:100BD00011F00C9488180895AF92BF92CF92DF92D3
:100BE000EF92FF920F931F93CF93DF93CDB7DEB7B2
:100BF0002E970FB6F894DEBF0FBECDBF8C016B01F0
:100C00008091860390918703D80112969C938E93CE
:100C10001197D8011196ED91FC91809188039091E4
:100C200089038E179F0779F1A0908D03B0908E03F2
:100C3000E480F580B701CE0101960E949C05F70182
:100C40008681978198878F83BE016F5F7F4FCE012A
:100C50000996F5010995B601CE0109960E947B031C
:100C60007C01CE0109960E94E405CE0101960E9406
:100C7000E405F7FE08C0D8011196ED91FC9112979A
:100C800082819381C2CFC8012E960FB6F894DEBF41
:100C90000FBECDBFDF91CF911F910F91FF90EF90CD
:100CA000DF90CF90BF90AF9008950F931F93CF9395
:100CB000DF9300D000D000D0CDB7DEB78C0160EA62
:100CC00073E0CE0101960E949C05B801CE01019609
:100CD0000E9411056AE271E00E94FB04BC0180EAF7
:100CE00093E00E948505CE0101960E94E4052696B8
:100CF0000FB6F894DEBF0FBECDBFDF91CF911F912D
:100D00000F910895CF92DF92EF92FF92CF93DF93EE
:100D1000CDB7DEB762970FB6F894DEBF0FBECDBF7A
:100D20006CE271E0CE0101960E94D305CE010196DE
:100D30000E945506CE0101960E94E4056BE371E026
:100D4000CE0101960E94D305CE0101960E94550660
:100D5000CE0101960E94E40580911B02882381F058
:100D600067E471E0CE0101960E94D305CE010196A1
:100D70000E945506CE0101960E94E40510921B02C6
:100D800080911A02882381F064E571E0CE0101961A
:100D90000E94D305CE0101960E945506CE01019610
:100DA0000E94E40510921A02809119028823D9F05A
:100DB00062E671E0CE0101960E94D305CE01019654
:100DC0000E945506CE0101960E94E40562960FB678
:100DD000F894DEBF0FBECDBFDF91CF91FF90EF90B3
:100DE000DF90CF90089565E771E0CE0101960E94F3
:100DF000D305CE0101960E945506CE0101960E94B0
:100E0000E4058091B902882309F31092BA02609137
:100E1000BD027091BE028091BF029091C0020E94FB
:100E2000C61528E23BE64EE65EE40E9444176B01DD
:100E30007C016091BB027091BC0290E080E00E9456
:100E4000C6159B01AC01C701B6010E94D816AB01C3
:100E5000BC018091C10281117058CE0107960E9499
:100E60004F0568E871E0CE0101960E94D305BE01EE
:100E7000695F7F4FCE0101960E94110569E371E021
:100E80000E94FB04BC01CE010D960E949C05CE0180
:100E90000D960E945506CE010D960E94E405CE01E6
:100EA00001960E94E405CE0107960E94E405109287
:100EB000BA026091C4027091C5028091C6029091FD
:100EC000C7020E94C61528E23BE64EE65EE40E9499
:100ED00044176B017C016091C2027091C30290E0E3
:100EE00080E00E94C6159B01AC01C701B6010E94BB
:100EF000D816AB01BC018091C80281117058CE0197
:100F000007960E944F0562E971E0CE0101960E94AA
:100F1000D305BE01695F7F4FCE0101960E94110586
:100F200069E371E00E94FB04BC01CE010D960E94B2
:100F30009C05CE010D960E945506CE010D960E948D
:100F4000E405CE0101960E94E405CE0107963CCF50
:100F5000CF92DF92EF92FF92CF93C1E08CE192E0CB
:100F60000E946801892B09F4DAC080918F03909167
:100F70009003892B09F047C00E9490026093A6035A
:100F80007093A7038093A8039093A9036CE971E081
:100F900084E993E00E9445058CE192E00E944601BD
:100FA000682F80918F03909190039C012F5F3F4F9A
:100FB0003093900320938F038330910508F0A9C0EC
:100FC00041E0663609F440E02430310511F465361D
:100FD00019F4442309F44EC01092900310928F0329
:100FE00010929203109291036CE971E084E993E00E
:100FF0000E9445056CE971E08AE993E00E9445058D
:1010000010929303ABCFC090A603D090A703E090BB
:10101000A803F090A9038CE2C80E81E0D81EE11C61
:10102000F11C0E949002C616D706E806F90608F0E1
:10103000B3CF6CE971E08AE993E00E944505109214
:10104000900310928F0310929203109291036CE917
:1010500071E084E993E00E944505109293030E9499
:1010600090026093A6037093A7038093A8039093C4
:10107000A90392CF0497029720F5109293038AE96F
:1010800093E00E94D60480918F039091900306977D
:1010900009F064CF40E150E070E060E080919A0395
:1010A00090919B030E9430126A5F7F4F709392036E
:1010B000609391036CE971E08AE993E00E94450531
:1010C0004DCF2730310508F449CF8091910390919D
:1010D00092032817390738F41092930384E993E0B8
:1010E0000E94D6043BCF9093900380938F03892B6B
:1010F00009F434CF84E993E00E94D604109290035F
:1011000010928F031092920310929103C093930355
:1011100025CF2430310509F0ADCF40E058CFCF9135
:10112000FF90EF90DF90CF9008950E94740181119D
:101130000C94A80708951F920F920FB60F921124D6
:101140002F933F934F935F936F937F938F939F93CF
:10115000AF93BF93EF93FF938CE192E00E947E01E7
:10116000FF91EF91BF91AF919F918F917F916F917F
:101170005F914F913F912F910F900FBE0F901F9055
:1011800018951F920F920FB60F9211242F938F93E1
:101190009F93EF93FF93E0912C02F0912D028081B9
:1011A000E0913202F091330282FD1BC09081809168
:1011B00035028F5F8F7320913602821741F0E091E4
:1011C0003502F0E0E45EFD4F958F80933502FF918C
:1011D000EF919F918F912F910F900FBE0F901F90C5
:1011E00018958081F4CF1F920F920FB60F921124A1
:1011F0002F933F938F939F93AF93BF93809111024F
:1012000090911202A0911302B09114023091100239
:1012100023E0230F2D3758F50196A11DB11D209312
:1012200010028093110290931202A0931302B093C4
:10123000140280910C0290910D02A0910E02B091C7
:101240000F020196A11DB11D80930C0290930D0217
:10125000A0930E02B0930F02BF91AF919F918F9117
:101260003F912F910F900FBE0F901F90189526E879
:10127000230F0296A11DB11DD2CF1F920F920FB660
:101280000F9211242F933F934F935F936F937F930C
:101290008F939F93AF93BF93EF93FF93E0911702C8
:1012A000F0911802309749F0A685B7858585968D0F
:1012B00091FF14C09C918923A1F4FF91EF91BF91FC
:1012C000AF919F918F917F916F915F914F913F91DE
:1012D0002F910F900FBE0F901F9018959C9189230E
:1012E00061F7A389B4899C918589809589238C9322
:1012F000868997890197F1F7608D718DA685B785ED
:10130000558538E020E0CB010197F1F7822F90E07E
:1013100095958795282F4C91452309F020683150E9
:1013200091F7868D81FD20958091160290E00196BF
:101330008F73992730911502381799F0A0911602F2
:10134000B0E0A453BE4F2C9380931602828D938DF0
:101350000197F1F7A389B4898C919589892B8C9396
:10136000ACCF868D8160868FF1CF1F93CF93DF93B3
:10137000282F30E0F901E459FE4F8491F901E85536
:10138000FE4FD491F901EC56FE4FC491CC23A9F045
:10139000162F81110E940D02EC2FF0E0EE0FFF1FBF
:1013A000E657FE4FA591B4918FB7F894EC911111C7
:1013B00008C0D095DE23DC938FBFDF91CF911F91C2
:1013C0000895DE2BF8CFCF92DF92EF92FF9210922A
:1013D0001F0210921E0298EEC92E93E0D92EE12C26
:1013E000F12CC0922002D0922102E0922202F092CF
:1013F00023028AE091E090931D0280931C0285EC09
:1014000090E0909329028093280284EC90E09093DE
:101410002B0280932A0280EC90E090932D0280931F
:101420002C0281EC90E090932F0280932E0282ECAC
:1014300090E0909331028093300286EC90E090939C
:1014400033028093320210923502109236021092CB
:1014500037021092380210928B0310928A0386E0B2
:1014600090E00E94EC17FC0111821082138212821C
:101470001582148290938703809386039093890347
:101480008093880385EA95E090938E0380938D0383
:101490006CE971E084E993E00E94D3056CE971E0A6
:1014A0008AE993E00E94D3056CE971E080EA93E059
:1014B0000E94D3051092690310926803C0926A03D8
:1014C000D0926B03E0926C03F0926D038CE191E09B
:1014D000909367038093660310927D0310927C03C0
:1014E00010927F0310927E0310928103109280036A
:1014F0001092830310928203609184036E7F6D7F4C
:10150000609384036695617081E068278BE00E9498
:10151000B50961E08BE00E945F02E3EBF1E0E4914A
:10152000E0937603EFE9F1E0E491F0E0EE0FFF1FC6
:10153000E657FE4F859194919093780380937703BB
:1015400060E08AE00E945F028091840381FD04C014
:1015500061E08AE00E94B5098AE080937203E2EBC1
:10156000F1E0E491E0937303EEE9F1E0E491F0E05F
:10157000EE0FFF1FE058FE4F8591949190937503F5
:10158000809374031092B9021092BA021092BC02B6
:101590001092BB021092BD021092BE021092BF02C6
:1015A0001092C0021092C1021092C3021092C202A5
:1015B0001092C4021092C5021092C6021092C70285
:1015C0001092C8021092CA021092C9021092CB0265
:1015D0001092CC021092CD021092CE021092CF0245
:1015E0001092D1021092D0021092D2021092D30225
:1015F0001092D4021092D5021092D6021092DB0201
:101600001092DC021092DD021092DE021092DF02D4
:101610001092E0021092E9021092EA021092EB029C
:101620001092EC021092ED021092EE021092F7026C
:101630001092F8021092FD021092FE021092FF0228
:1016400010920003109205031092060310920B03F0
:1016500010920C0310920D0310920E0310921303BC
:10166000109214031092190310921A0310921B0384
:1016700010921C0310922103109222031092270350
:10168000109228031092290310922A0310922F031C
:1016900010923003109235031092360310923703E4
:1016A0001092380310923D0310923E0382E0809323
:1016B0004E0310924F031092500310925103109258
:1016C0005303109252031092550310925403109238
:1016D0005603109257031092580310925903109218
:1016E0005A0310925B0310925C0310925D031092F8
:1016F0005E0310925F0310926003109261031092D8
:1017000062031092630310926403109265031092B7
:101710003F03FF90EF90DF90CF900895CF93DF933A
:10172000CDB7DEB7E0970FB6F894DEBF0FBECDBFE2
:10173000789484B5826084BD84B5816084BD85B5AC
:10174000826085BD85B5816085BD80916E008160B8
:1017500080936E001092810080918100826080935E
:101760008100809181008160809381008091800060
:101770008160809380008091B10084608093B1008B
:101780008091B00081608093B00080917A00846085
:1017900080937A0080917A00826080937A008091B1
:1017A0007A00816080937A0080917A0080688093CB
:1017B0007A001092C10060E082E00E945F0260E067
:1017C00083E00E945F0260E084E00E945F0210926A
:1017D00081031092800310927F0310927E03109277
:1017E0007D0310927C038DE991E0909383038093B5
:1017F000820390917203963108F047C02DEB30E0E0
:1018000030937D0320937C032BE931E030937F03F9
:1018100020937E032CE231E03093810320938003F8
:101820002091680084E0983048F031E09E3008F460
:1018300030E081E001C0880F3A95EAF7822B80936F
:1018400068002DE630E0983050F02BE630E09E3016
:1018500030F02CE630E0963110F030E020E03093AC
:101860007A0320937903292F30E0983008F029C2B9
:1018700081E001C0880F9A95EAF780937B038091FD
:101880008203909183030197F1F7809180039091F7
:101890008103892B49F1E0911702F091180223E0AE
:1018A000E636F20709F1309739F0A389B4899C91A3
:1018B0008589809589238C93809184038E7F809382
:1018C0008403109216021092150286E693E090931C
:1018D000180280931702E0917903F0917A038081D6
:1018E00090917B03892B808382E896E09093AB03F1
:1018F0008093AA036FEF70E084E993E00E94820472
:101900006CE971E08AE993E00E9445056CE971E0B9
:1019100084E993E00E9445056CE971E080EA93E078
:101920000E94450510929303109292031092910326
:101930001092900310928F031092A6031092A703A7
:101940001092A8031092A903E0912C02F0912D02AD
:1019500082E08083E0912802F09129021082E091D8
:101960002A02F0912B028FEC808310923402E091D6
:101970003002F091310286E08083E0912E02F091F6
:101980002F02808180618083E0912E02F0912F02EE
:10199000808188608083E0912E02F0912F02808107
:1019A00080688083E0912E02F0912F0280818F7DEC
:1019B00080838E01075E1F4FAA24A394B12C29EACD
:1019C000E22E21E0F22E33E0632E7724739480918F
:1019D000930310929303882309F46CC064E973E0C5
:1019E000CE0101960E949C058D819E81892B51F02C
:1019F0006DE971E089819A810E94D719DD24D39421
:101A0000892B09F0D12CCE0101960E94E405DD203E
:101A100009F464C1E091AA03F091AB03099560EA6F
:101A200073E0CE0141960E949C058E898F938D892B
:101A30008F93FF92EF921F926F921F930F930E94CA
:101A4000F619B801CE0109960E94D3056EEA71E03D
:101A5000CE0101960E94D305BE01675F7F4FCE0184
:101A600001960E941105BE016F5E7F4F0E94110515
:101A7000DC0114964D915C9115976D917C918CE1F0
:101A800092E00E940A01CE0101960E94E405CE0177
:101A900009960E94E405CE0141960E94E4056CE996
:101AA00071E080EA93E00E9445050FB6F894DEBF2E
:101AB0000FBECDBF82E00E943602019711F47092F2
:101AC0001B0283E00E943602019711F470921A0201
:101AD00084E00E943602019709F033C27092190225
:101AE00082E0882E86E693E00E943F0318161906CE
:101AF0000CF010C486E693E00E945703982E809164
:101B0000560390915703A0915803B0915903019641
:101B1000A11DB11D8093560390935703A0935803C2
:101B2000B0935903F4E29F1609F4D3C3E091500334
:101B3000F9150CF409C22AE0921619F08DE09812FA
:101B4000D5C3EF3008F07EC2F0E0E15CFC4F1082BC
:101B500080913E03882309F483C220913F03822FA2
:101B6000022E000C990B3FEB320F363008F0F9C112
:101B7000C7978295807F90914003292F092E000CF2
:101B8000330B4FEB490F463008F0F3C127533109AF
:101B9000820F90913D03891342C28091620390911C
:101BA0006303A0916403B09165030196A11DB11D6B
:101BB0008093620390936303A0936403B0936503DF
:101BC00080915103882399F080915A0390915B038F
:101BD000A0915C03B0915D030196A11DB11D80939E
:101BE0005A0390935B03A0935C03B0935D03D09082
:101BF0004E03DD2009F4C6C1B1E0DB1234C08BED29
:101C000092E00E94B30289EE92E00E94B3028091BA
:101C10005103882341F187E0E9ECF2E0ABEBB2E05D
:101C200001900D928A95E1F787E0E0EDF2E0A2ECF9
:101C3000B2E001900D928A95E1F70E9490026093C4
:101C4000D7027093D8028093D9029093DA02D0928F
:101C5000BA02D092B90287EF92E00E949C0285E01E
:101C600093E00E949C02C0905403D0905503C1148D
:101C7000D10409F4E7C1E0915403F091550366A142
:101C800077A1F60186A197A10E94D719892B09F0A7
:101C9000D9C1B601C60140960E94E0190E94900287
:101CA000D60190966D937D938D939C939397959683
:101CB0007C92959794967C9294979A96CD90DC908E
:101CC000D6CF9E3040F42850310981E001C0880F02
:101CD0002A95EAF7D2CD2E503109F7CF64E973E0A7
:101CE000CE0185960E949C05BE016B5D7F4FCE01A3
:101CF0008E960E94EC05EFA5F8A98091880390913B
:101D000089038E179F0741F064817581CE01859606
:101D10000E947B0397FF6AC0BE016B5D7F4FCE01BF
:101D200041960E949C05188E1F8AC0908D03D0900A
:101D30008E03BE016F5E7F4FCE0101960E949C050F
:101D40008F89988D98878F83BE016F5F7F4FCE01FB
:101D50000996F6010995BE01675F7F4FCE018B960C
:101D60000E94EC05CE0109960E94E405CE01019681
:101D70000E94E405ECA5FDA580918803909189035C
:101D80008E179F0709F06AC080918A0390918B0398
:101D9000892BD1F586E090E00E94EC176C01BE0122
:101DA0006F5E7F4F0E94AE05D0928703C09286037C
:101DB000E0918803F0918903D182C082D601119607
:101DC0001C921E921396FC93EE931297B0928B0383
:101DD000A0928A03E0918803F0918903C080D180AA
:101DE000D8AACFA6CE0141960E94E405EFA5F8A996
:101DF0000480F581E02D0680F781E02D0995CE0164
:101E000085960E94E40556CE86E090E00E94EC178D
:101E10006C01BE016F5E7F4F0E94AE05E0918803AA
:101E2000F091890380819181D60111969C938E93C4
:101E30001396FC93EE931297A081B1811396DC92D6
:101E4000CE921297D182C08280918A0390918B03A7
:101E5000019690938B0380938A03BCCF80908D036F
:101E600090908E03C480D580B601CE0109960E9461
:101E70009C05F60186819781988B8F87BE01675FED
:101E80007F4FCE014F96F4010995C0908D03D090FD
:101E90008E03BE016F5E7F4FCE0101960E949C05AE
:101EA0008F89988D98878F83BE016F5F7F4FC801A0
:101EB000F6010995BE01615E7F4FC8010E947B0358
:101EC0006C01C8010E94E405CE0101960E94E40560
:101ED000CE014F960E94E405CE0109960E94E405CA
:101EE0008CA49DA4D7FE2BC086E090E00E94EC1746
:101EF0006C01BE016F5E7F4F0E94AE05D4018D91D3
:101F00009C911197F6019183808393828282892B21
:101F100089F4D0928703C0928603F401D182C082F3
:101F200080918A0390918B03019690938B03809309
:101F30008A0356CFED91FC91D382C282EECF640129
:101F40004FCF10921902CCCD9AE2991609F4F9CD2F
:101F5000ACE29A12CBC180913D03892580933D0369
:101F6000F0CD2156263018F48755910902CEC0973E
:101F700000CE9156963018F42755310909CE2053DA
:101F8000310906CE89EE92E00E94B302809151039E
:101F9000882321F187E0E9ECF2E0ABEBB2E00190BD
:101FA0000D928A95E1F787E0E0EDF2E0A2ECB2E075
:101FB00001900D928A95E1F70E9490026093D702FA
:101FC0007093D8028093D9029093DA027092BA0289
:101FD0007092B90283E193E00E949C0280912B03EE
:101FE00090912C03A0912D03B0912E038093270391
:101FF00090932803A0932903B0932A030E94900290
:102000006093230370932403809325039093260306
:1020100070922203709221038FE293E022CE80918E
:102020005E0390915F03A0916003B09161030196FC
:10203000A11DB11D80935E0390935F03A093600385
:10204000B093610380914F038F5F80934F03109291
:10205000500381E0FAE29F1280E080933E0342CD7C
:1020600090914F03911145C063EB71E08FE393E0D2
:102070000E94D719892B41F069EB71E08FE393E05F
:102080000E94D719892BF9F470924E038091520364
:10209000909153039093550380935403C09054033D
:1020A000D0905503C114D10469F26FE373E0F601D7
:1020B00086A197A10E94D71997FF34C1D6019A969D
:1020C0008D919C91E7CF6FEB71E08FE393E00E94DD
:1020D000D719892B41F065EC71E08FE393E00E9402
:1020E000D719892B19F410924E03D0CF80924E034A
:1020F000CDCFE0914E03E23009F448C080913F0318
:10210000882309F443C0B0E2EB9FF0011124E92BCE
:102110003197E932F10508F039C0EF56FF4E0C94C3
:10212000CA17BA10FC1003110A110D113B1142110C
:102130004F115C11C610C610C610C610C610C610CE
:10214000C610C610C610C610C610C610C610C610DF
:10215000C610C610C610C610C610C610C610C610CF
:10216000C610BA10F610FC1003110A110D1114114B
:1021700021112E118FE393E00E942F046093EF0250
:102180007093F0028093F1029093F202C090540396
:10219000D090550350904F03C114D10409F452CF8D
:1021A000E0915403F091550366A177A1F60186A151
:1021B00097A10E94D719892B09F044CFD601989690
:1021C0002D913C91852D90E0821793070CF43ACF26
:1021D0002817390739F440E150E06FE373E0C60196
:1021E0000E94E719F601C2A4D3A4D4CF91E08134B0
:1021F00009F445C090E043C069EC72E08FE393E0DE
:102200000E94A803C3CF91E0833509F090E090933A
:10221000CF02BCCF60ED72E0F1CF91E0873509F0DD
:1022200090E09093D602B2CF8FE393E00E942F0408
:10223000609301037093020380930303909304035C
:10224000A5CF8FE393E00E942F0460930F03709358
:102250001003809311039093120398CF8FE393E0C0
:102260000E9447136093E1027093E2028093E302BD
:102270009093E4028BCF91E081330CF4BBCF909329
:10228000510384CF8FE393E00E94471360932B03A5
:1022900070932C0380932D0390932E0377CF8FE3BD
:1022A00093E00E942F046093390370933A03809364
:1022B0003B0390933C036ACF8FE393E00E942F048B
:1022C00060931D0370931E0380931F03909320035C
:1022D0005DCF1092500310924F0310923D038092F5
:1022E0004E0310923E0310925103FCCBEE3040F4AB
:1022F00081E08E0F80935003F0E0E15CFC4F908210
:1023000080913E038111EECB80913D0398269092FF
:102310003D03E8CB0E947401882309F458CB0E9446
:10232000A80747CB892B09F48DCE10925503109244
:10233000540388CECF93DF938CE191E090936703B1
:1023400080936603809117029091180286569340FD
:1023500071F4E0917903F0917A03908180917B038D
:10236000809589238083109218021092170280EAC8
:1023700093E00E94E4058AE993E00E94E40584E981
:1023800093E00E94E405E0918603F0918703809139
:102390008A0390918B03892B71F10280F381E02DE8
:1023A000F0938703E09386030190F081E02DC481D0
:1023B000D581209731F0CE010E94E405CE010E9424
:1023C0008818E0918603F0918703808191810097BE
:1023D00011F00E948818E0918603F0918703118222
:1023E000108280918A0390918B03019790938B03C5
:1023F00080938A03C8CFC481D581209731F0CE0164
:102400000E94E405CE010E94881880918603909175
:102410008703009721F0DF91CF910C948818DF910A
:10242000CF910895EF920F931F93CF93DF93E8011D
:1024300034E047FD34E1042E000C550B57FF03C078
:10244000519541955109E32E022F242FAE010E9490
:102450008C13CE01DF91CF911F910F91EF900895D2
:10246000B0E0A0E0E6E3F2E10C9492165C016B01AF
:102470007A016115710519F0FB0191838083E114E4
:10248000F10451F0C7010297839730F040E030E04B
:1024900020E090E072C05E01E5012196F501108117
:1024A000812F90E00E946E13892BA9F71D3201F550
:1024B0002196F501118101E0E114F10409F4DAC07B
:1024C000F0E1EF16F10409F082C0103359F488816D
:1024D0008F7D883509F076C0198122960260F0E17F
:1024E000EF2EF12C812C912CA12C88E0B82E8CC0E1
:1024F0001B3221F4E5012296F501118100E0DCCFC9
:10250000EAE0EE16F10409F4BBC0F0E1EF16F104C5
:1025100009F06DC0E7CF78E0E72EF12C812C912CEB
:10252000A12C60E1B62E70C03FE9310F3A3128F49A
:1025300039EA332E80C021E09AC0302F3170C114A7
:10254000D10431F0222309F12197F601D183C08310
:1025500027FF21C060E070E080E090E8311104C006
:102560006FEF7FEF8FEF9FE722E230E03093AD0314
:102570002093AC03462F372F282F642F732F822FE1
:10258000CDB7DEB7E1E10C94AE1601FF04C022978F
:10259000F601D183C083332341F0909580957095E7
:1025A00061957F4F8F4F9F4FE5CF97FFE3CF82E23B
:1025B00090E09093AD038093AC036FEF7FEF8FEFCC
:1025C0009FE7D8CF10E3E114F10409F4A4CF28E089
:1025D000E216F10409F4A2CF0CF092CF812C912CD9
:1025E000A12CE0E4BE2E82E0E816F10469F060E080
:1025F00070E080E090E897010F2C000C440B550B25
:102600000E94641649015A0120E060E070E0CB01AD
:1026100027010F2C000C66087708FE0150ED352EBF
:10262000310E39E0331540F43FEB310F3A3108F009
:102630007BCF49EC342E310E3E141F040CF07DCFBD
:1026400027FD15C086169706A806B90678F0A301DF
:1026500092010E945416630D711D811D911D613000
:102660007105810520E8920708F465CF2FEF2196C8
:102670001081D3CF103309F42ACF2AE0E22EF12CB7
:102680009CEC892E982CA82C9CE0B92EBDCF1F93D2
:10269000FC0199278827BC01E89411911032E9F3D5
:1026A000193010F01E30C8F31B3251F01D3249F4BE
:1026B000689406C00E947713610F711D811D911DE2
:1026C000119110531A30B0F33EF4909580957095A7
:1026D00061957F4F8F4F9F4F1F91089591110C94DB
:1026E000C315803219F089508550C8F70895592FC5
:1026F000482F372F262F660F771F881F991F660FC9
:10270000771F881F991F620F731F841F951F660F05
:10271000771F881F991F0895A9E0B0E0E2E9F3E16F
:102720000C9497166A01F22EB02E102FFBE3AF2EF9
:10273000A01608F41BE31F5F012F27E0AE014F5FD7
:102740005F4F0E94EB14BC018981982F99709130E2
:1027500009F43FC09BE2E1FC04C09E2D9170E0FCB7
:102760003AC05E2D5071E82FE87083FF46C084E0C8
:10277000911101C083E0EF2DE81B8F1508F0E0E018
:10278000D6018E2F20E2552351F1992329F0D6014D
:102790009C93C60101966C0196012D5F3F4FE2FEAE
:1027A00024C08EE4D6018C9391E411969C931197EA
:1027B00012968C93D9018E2F90E281111BC0E20FEB
:1027C000F32FF11D10828EEF9FEF2996ECE00C9411
:1027D000B3169DE2C6CF90E2C4CF2D9381508111F4
:1027E000FCCFCE0ED11CE0E0D0CF8EE6D6018C938C
:1027F00091E6DBCF9D938150E0CF482F447082FF5C
:102800003DC084E0911101C083E08F1510F4EF2DDD
:10281000E81BD6018E2F20E2552309F1992329F0D8
:10282000D6019C93C60101966C0196012D5F3F4F26
:10283000E2FE1BC089E4D6018C938EE411968C9342
:10284000119786E412968C93D9018E2F90E28823FB
:1028500009F4B5CF9D938150FACF2D93815081110A
:10286000FCCFCE0ED11CE0E0D9CF89E6D6018C9307
:102870008EE611968C93119786E6E4CF9B0177FF45
:1028800002C030E020E0A1E0B0E0911102C0B0E071
:10289000A0E0F9013196AE0FBF1F8B2C912CBB200D
:1028A00009F461C05401EFEFAE1ABE0AAA0DBB1DB8
:1028B000FA161B0619F014F04F2D4A1B511188C04F
:1028C000E3FC59C07601A42FB0E2A1114FC0C40EA1
:1028D000D11C992309F45BC040E0D6011196F601A2
:1028E00090836D01552309F448C0012F060F9A818A
:1028F000582F507184FF03C0913309F40150101612
:102900000CF047C0093008F008E0EEE2FE2E5B0153
:10291000A01AB10885019194819491082F3F320744
:1029200029F4D601FC92F60131966F016217730704
:1029300094F1021713077CF5DB01A21BB30BAA2449
:10294000A394B12CAC0EBD1EAA0DBB1D11968C918B
:1029500021503109D601119628153905F4F0F601F8
:1029600080836D01DBCFB12CA12CA0CFF701B193F7
:102970007F01A150AACF9111B0CFD601942F50E37F
:1029800002C05D9391509111FCCFC40ED11C40E068
:10299000ACCF01E0BACF80E3DBCF6217730731F42D
:1029A000963388F4953311F4552369F0F60180834A
:1029B000FD01842F90E2811108C0A40FB11D1C926B
:1029C00090E080E002CF81E3F1CF91938150F3CF8B
:1029D000911183CF8ACF283008F027E03327DA011E
:1029E000990F311D87FD916000966105710539F4DD
:1029F00032602E5F3D9330E32A95E1F708959F3FC3
:102A000030F080387105610509F03C5F3C5F3D9313
:102A1000913008F08068911DDF93CF931F930F933F
:102A2000FF92EF92192F987F9695E92F969596959C
:102A3000E90FFF27EE53FF4F99273327EE24FF249A
:102A4000A701E70105900894079428F4360FE71EC4
:102A5000F81E491F511D660F771F881F991F069486
:102A6000A1F70590079428F4E70EF81E491F561F9A
:102A7000C11D770F881F991F661F0694A1F7059047
:102A8000079428F4F80E491F561FC71FD11D880F41
:102A9000991F661F771F0694A1F70590079420F4ED
:102AA000490F561FC71FD81F990F661F771F881F12
:102AB0000694A9F784911095177041F0D695C795A3
:102AC00057954795F794E7941A95C1F7E8E6F0E033
:102AD00068941590159135916591959105907FE2D7
:102AE0007395E118F10A430B560BC90BD009C0F7D7
:102AF000E10CF11E431F561FC91FD01D7EF4703319
:102B000011F48A95E6CFE894015030F0080F0AF4EA
:102B10000027021708F4202F2395022F7A3328F07C
:102B200079E37D932A95E9F710C07D932A9589F67C
:102B3000069497956795379517951794E118F10ABC
:102B4000430B560BC90BD00998F023957E917395D2
:102B50007A3308F070E37C932013B8F77E917061AC
:102B60007D9330F0839571E37D9370E32A95E1F7CF
:102B70001124EF90FF900F911F91CF91DF91992732
:102B800087FD90950895992788270895E89409C0AE
:102B900097FB3EF490958095709561957F4F8F4F90
:102BA0009F4F9923A9F0F92F96E9BB279395F695A6
:102BB000879577956795B795F111F8CFFAF4BB0F24
:102BC00011F460FF1BC06F5F7F4F8F4F9F4F16C088
:102BD000882311F096E911C0772321F09EE8872F12
:102BE000762F05C0662371F096E8862F70E060E0CE
:102BF0002AF09A95660F771F881FDAF7880F969547
:102C0000879597F9089597F99F6780E870E060E0ED
:102C100008959FEF80EC089500240A941616170675
:102C200018060906089500240A94121613061406BD
:102C300005060895092E0394000C11F4882352F020
:102C4000BB0F40F4BF2B11F460FF04C06F5F7F4FD8
:102C50008F4F9F4F089557FD9058440F551F59F0BF
:102C60005F3F71F04795880F97FB991F61F09F3F79
:102C700079F087950895121613061406551FF2CFA2
:102C80004695F1DF08C0161617061806991FF1CFF2
:102C900086957105610508940895E894BB27662719
:102CA0007727CB0197F90895DB018F939F930E94BB
:102CB0008616BF91AF91A29F800D911DA39F900D8D
:102CC000B29F900D11240895A1E21A2EAA1BBB1BDE
:102CD000FD010DC0AA1FBB1FEE1FFF1FA217B307E8
:102CE000E407F50720F0A21BB30BE40BF50B661FFE
:102CF000771F881F991F1A9469F7609570958095C2
:102D000090959B01AC01BD01CF0108950E94C816AA
:102D1000A59F900DB49F900DA49F800D911D11242F
:102D200008952F923F924F925F926F927F928F926F
:102D30009F92AF92BF92CF92DF92EF92FF920F934A
:102D40001F93CF93DF93CDB7DEB7CA1BDB0B0FB654
:102D5000F894DEBF0FBECDBF09942A883988488811
:102D60005F846E847D848C849B84AA84B984C884A7
:102D7000DF80EE80FD800C811B81AA81B981CE0F9E
:102D8000D11D0FB6F894DEBF0FBECDBFED01089583
:102D9000A29FB001B39FC001A39F700D811D11249C
:102DA000911DB29F700D811D1124911D08955058E1
:102DB000BB27AA270E94EF160C941A160E940C1625
:102DC00038F00E94131620F039F49F3F19F426F4CE
:102DD0000C9409160EF4E095E7FB0C940316E92F0A
:102DE0000E942B1658F3BA176207730784079507DA
:102DF00020F079F4A6F50C944D160EF4E0950B2E08
:102E0000BA2FA02D0B01B90190010C01CA01A0013C
:102E10001124FF27591B99F0593F50F4503E68F197
:102E20001A16F040A22F232F342F4427585FF3CFD8
:102E3000469537952795A795F0405395C9F77EF4A9
:102E40001F16BA0B620B730B840BBAF09150A1F0F2
:102E5000FF0FBB1F661F771F881FC2F70EC0BA0F78
:102E6000621F731F841F48F4879577956795B79500
:102E7000F7959E3F08F0B0CF9395880F08F09927FB
:102E8000EE0F9795879508950E9458170C941A167F
:102E90000E94131658F00E940C1640F029F45F3F70
:102EA00029F00C94031651110C944E160C9409162B
:102EB0000E942B1668F39923B1F3552391F3951BC8
:102EC000550BBB27AA2762177307840738F09F5F4B
:102ED0005F4F220F331F441FAA1FA9F335D00E2EB8
:102EE0003AF0E0E832D091505040E695001CCAF725
:102EF0002BD0FE2F29D0660F771F881FBB1F2617E8
:102F000037074807AB07B0E809F0BB0B802DBF01BE
:102F1000FF2793585F4F3AF09E3F510578F00C948D
:102F200003160C944E165F3FE4F3983ED4F3869557
:102F300077956795B795F7959F5FC9F7880F911DAE
:102F40009695879597F90895E1E0660F771F881F9A
:102F5000BB1F621773078407BA0720F0621B730B4D
:102F6000840BBA0BEE1F88F7E095089597FB072EA8
:102F700016F4009407D077FD09D00E94D81707FCFB
:102F800005D03EF4909581959F4F08957095619579
:102F90007F4F0895EE0FFF1F0590F491E02D0994E7
:102FA000B7FF0C9486160E948616821B930B089519
:102FB000AA1BBB1B51E107C0AA1FBB1FA617B7075F
:102FC00010F0A61BB70B881F991F5A95A9F780957B
:102FD0009095BC01CD0108950F931F93CF93DF937C
:102FE0008230910510F482E090E0E091B003F0911E
:102FF000B10330E020E0B0E0A0E0309799F4211573
:10300000310509F44AC0281B390B24303105D8F5A5
:103010008A819B816115710589F1FB01938382830C
:10302000FE0111C040815181028113814817590767
:10303000E0F04817590799F4109761F012960C9335
:10304000129713961C933296CF01DF91CF911F9167
:103050000F9108950093B0031093B103F4CF21159D
:10306000310551F04217530738F0A901DB019A01ED
:10307000BD01DF01F801C1CFEF01F9CF9093B1039A
:103080008093B003CDCFFE01E20FF31F81939193A4
:103090002250310939832883D7CF2091AE03309154
:1030A000AF03232B41F420910201309103013093AF
:1030B000AF032093AE03209100013091010121154F
:1030C000310541F42DB73EB74091040150910501FF
:1030D000241B350BE091AE03F091AF03E217F30729
:1030E000A0F42E1B3F0B2817390778F0AC014E5F78
:1030F0005F4F2417350748F04E0F5F1F5093AF0303
:103100004093AE03819391939FCFF0E0E0E09CCF9A
:10311000CF93DF930097E9F0FC013297138212827C
:10312000A091B003B091B103ED0130E020E0109721
:10313000A1F420813181820F931F2091AE03309141
:10314000AF032817390709F061C0F093AF03E0938C
:10315000AE03DF91CF910895EA01CE17DF07E8F5BE
:103160004A815B819E0141155105B1F7E901FB835D
:10317000EA8349915991C40FD51FEC17FD0761F4FB
:10318000808191810296840F951FE901998388833C
:10319000828193819B838A83F0E0E0E012968D9197
:1031A0009C9113970097B9F52D913C911197CD0102
:1031B0000296820F931F2091AE033091AF03281720
:1031C000390739F6309751F51092B1031092B003D8
:1031D000B093AF03A093AE03BCCFD383C28340812F
:1031E0005181840F951FC817D90761F44E5F5F4F57
:1031F00088819981480F591F518340838A819B811F
:10320000938382832115310509F0B0CFF093B10388
:10321000E093B0039ECFFD01DC01C0CF1382128288
:10322000D7CFB0E0A0E0E7E1F9E10C9493168C0170
:10323000009751F4CB010E94EC178C01C801CDB767
:10324000DEB7E0E10C94AF16FC01E60FF71F9C011E
:1032500022503109E217F30708F49DC0D901CD913E
:10326000DC911197C617D70798F0C530D10530F318
:10327000CE0104978617970708F3C61BD70B229732
:10328000C193D1936D937C93CF010E948818D6CFC0
:103290005B01AC1ABD0A4C018C0E9D1EA091B003BF
:1032A000B091B103512C412CF12CE12C109731F548
:1032B0008091AE039091AF038815990509F05CC029
:1032C0004616570608F058C0809100019091010100
:1032D000009741F48DB79EB74091040150910501CC
:1032E000841B950BE817F90708F055C0F093AF035E
:1032F000E093AE03F90171836083A0CF8D919C911F
:10330000119712966C90129713967C901397A815AC
:10331000B90559F56C0142E0C40ED11CCA14DB0496
:1033200020F1AC014A195B09DA011296159780F079
:103330006282738251834083D9016D937C93E1143F
:10334000F10471F0D7011396FC93EE93129776CFA8
:1033500022968C0F9D1FF90191838083F301EFCF9B
:10336000F093B103E093B00369CF4816590608F40F
:103370002C017D01D3019ACFCB010E94EC177C0177
:10338000009749F0AE01B8010E94CE19C8010E9411
:103390008818870153CF10E000E050CFFB01DC011B
:1033A00002C001900D9241505040D8F70895FB01A2
:1033B000DC018D91019080190110D9F3990B0895CA
:1033C000FB01DC0101900D920020E1F70895FB0163
:1033D000DC014150504048F001900D920020C9F7A7
:1033E00001C01D9241505040E0F70895AEE0B0E0BA
:1033F000ECEFF9E10C949F160D891E898F89988D49
:1034000026E02C831A83098397FF02C080E090E8AE
:1034100001979E838D83AE01455E5F4F698D7A8DE6
:10342000CE0101960E94261A4D815E8157FD0AC089
:103430002F813885421753070CF49A01020F131F8E
:10344000F80110822E96E4E00C94BB16ABE0B0E0DD
:10345000ECE2FAE10C9491167C013B018A01FC013B
:1034600017821682838181FFC8C1CE0101965C015B
:10347000F7019381F30193FD859193FF81913F01C2
:10348000882309F453C1853239F493FD859193FF64
:1034900081913F01853229F4B70190E00E94161C0A
:1034A000E7CF912C212C312CFFE1F31538F08B3232
:1034B00011F190F4803209F1833229F137FC3CC0DC
:1034C00020ED280F2A3050F536FE20C08AE0989E65
:1034D000200D1124922E06C08D3291F0803371F7A9
:1034E000689430F8F30193FD859193FF81913F013A
:1034F0008111DACF21C0689431F8689432F8F2CFA4
:10350000689433F8EFCF689434F8ECCFEAE02E9E5D
:10351000200D1124222E689435F8E4CF8E3229F440
:1035200036FC04C1689436F8DDCF8C3619F4689403
:1035300037F8D8CF8836B1F2982F9F7D95549330C5
:10354000E0F08336A1F18337C1F1833509F063C020
:103550002801F2E04F0E511CF801C080D180692D86
:1035600070E036FC02C06FEF7FEFC6010E94001CC6
:103570004C01689437F882010AC00C5F1F4FFFE3CB
:10358000F98388248394912C6501E89437F833FEFD
:103590002DC0522C8114910471F5552009F468CF87
:1035A000B70180E290E00E94161C5A94F6CFF80111
:1035B000808189830E5F1F4FE4CF2801F2E04F0E18
:1035C000511CF801C080D180692D70E036FC02C02A
:1035D0006FEF7FEFC6010E940B1C4C018201D5CF1B
:1035E000B70180E290E00E94161C2A942814190466
:1035F00009F0B0F7CECFF60137FC859137FE819107
:103600006F01B70190E00E94161C51105A94F1E02E
:103610008F1A9108BFCF843619F0893609F077C028
:10362000F80137FE6BC060817181828193810C5FEC
:103630001F4FF32DFF763F2E97FF09C09095809581
:10364000709561957F4F8F4F9F4F689437F82AE0B0
:1036500030E0A5010E94461CC82ECA188C2C432CB1
:1036600036FE0CC0E89440F8C91440F434FE05C09E
:1036700032FC03C0F32DFE7E4F2E892C44FE95C0F4
:10368000FE01EC0DF11D8081803309F087C0242DEF
:10369000297E422E842D8870582E43FC95C040FE12
:1036A0008FC09C2C821418F42C0C922C981844FE79
:1036B00091C0B70180E390E00E94161C42FE09C051
:1036C00088E790E041FE02C088E590E0B7010E94E3
:1036D000161CC91408F48AC0CA94D12C9FEFC91AC9
:1036E000D90ACA0CDB1CF60182916F01B70190E088
:1036F0000E94161CAC14BD04B1F74FCF60817181DC
:10370000072E000C880B990B0E5F1F4F92CFD32C06
:10371000E894D4F82AE030E0853739F1232D297F69
:10372000D22E8F3601F148F48835A9F0F701868151
:1037300097812B96E2E10C94AD16803749F08837DB
:10374000A9F7D4FE02C06894D2F820E130E00DC0A1
:103750006894D4F8F6CF34FE03C0822F8660D82E4A
:1037600020E132E002C028E030E0F801D7FE0FC0CF
:1037700060817181828193810C5F1F4FA5010E943E
:10378000461CC82ECA183D2CE89437F867CF6081D4
:10379000718190E080E00E5F1F4FF0CF42FC02C0CD
:1037A000839478CF8394839475CF842D867809F49D
:1037B00071CFF6CFB70180E290E00E94161C83948F
:1037C0008214C0F3512C73CF522C5818821408F471
:1037D0006ECFF8CF842D867809F47BCF8BE241FE43
:1037E00080E247FC8DE2B70190E071CFB70180E342
:1037F00090E00E94161C9A946CCF8FEF9FEF99CFA8
:10380000FC010590615070400110D8F780959095AB
:103810008E0F9F1F0895FC016150704001900110B0
:10382000D8F7809590958E0F9F1F08950F931F9343
:10383000CF93DF93182F092FEB018B8181FD09C0F6
:103840001FEF0FEF812F902FDF91CF911F910F91DD
:10385000089582FF14C02E813F818C819D8128179D
:1038600039073CF4E881F981CF0101969983888377
:1038700010838E819F8101969F838E83E3CFE8859D
:10388000F985812F0995892BA1F3DACFFA01AA27AF
:10389000283051F1203181F1E8946F936E7F6E5F93
:1038A0007F4F8F4F9F4FAF4FB1E03ED0B4E03CD041
:1038B000670F781F891F9A1FA11D680F791F8A1F24
:1038C000911DA11D6A0F711D811D911DA11D20D08B
:1038D00009F468943F912AE0269F11243019305D45
:1038E0003193DEF6CF010895462F4770405D419336
:1038F000B3E00FD0C9F7F6CF462F4F70405D4A3383
:1039000018F0495D31FD4052419302D0A9F7EACF4A
:10391000B4E0A6959795879577956795BA95C9F779
:1039200000976105710508959B01AC010A2E06946C
:103930005795479537952795BA95C9F7620F731F25
:10394000841F951FA01D089510E0CFEDD0E004C0A6
:10395000FE010E94CA172196C03ED107C9F7F8940C
:02396000FFCF97
:103962000000B203800000000000A0010A0137013C
:10397200ED01680146015A0100000000E3020A015C
:103982007803E2023F035703CA023B006465737483
:10399200696E6174696F6E283129006465766963A6
:1039A2006528627573290070617373616765722897
:1039B200696E29007061737361676572286F75742F
:1039C20029006275735374617475732873746F7010
:1039D200706564290062757353746174757328721B
:1039E200756E6E696E6729006C61746974756465C1
:1039F20028006C6F6E67697475646528006765746A
:103A020050657263657074730025303258006666C3
:103A12006665004750524D4300474E524D430047A2
:0C3A22005047474100474E474741000015
:00000001FF
