:100000000C9463000C948B000C948B000C948B006C
:100010000C948B000C948B000C948B000C948B0034
:100020000C948B000C948B000C948B000C948B0024
:100030000C948B000C948B000C948B000C948B0014
:100040000C945A050C948B000C9428050C94020512
:100050000C948B000C948B000C948B000C948B00F4
:100060000C948B000C948B000000000025002800ED
:100070002B0000000000240027002A0000000000E0
:1000800023002600290004040404040404040202DA
:100090000202020203030303030301020408102007
:1000A0004080010204081020010204081020000012
:1000B0000008000201000003040700000000000027
:1000C0000000A405EE0811241FBECFEFD8E0DEBF6C
:1000D000CDBF22E0A2E5B1E001C01D92AF32B20770
:1000E000E1F711E0A0E0B1E0E4ECFFE102C005902F
:1000F0000D92A235B107D9F710E0C2E6D0E004C0F6
:100100002197FE010E94260BC136D107C9F70E9434
:10011000FD050C94D50F0C940000AF92BF92CF92C6
:10012000DF92EF92FF920F931F93CF93DF936C01B7
:100130007B018B01040F151FEB015E01AE18BF0898
:10014000C017D10759F06991D601ED91FC9101904A
:10015000F081E02DC6010995892B79F7C501DF9162
:10016000CF911F910F91FF90EF90DF90CF90BF90B4
:10017000AF900895FC01538D448D252F30E0842FDE
:1001800090E0821B930B541710F0CF9608950197BF
:100190000895FC01918D828D981761F0A28DAE0FAC
:1001A000BF2FB11D5D968C91928D9F5F9F73928F33
:1001B00090E008958FEF9FEF0895FC01918D828D5F
:1001C000981731F0828DE80FF11D858D90E008952C
:1001D0008FEF9FEF0895FC01918D228D892F90E084
:1001E000805C9F4F821B91098F739927089585E644
:1001F00091E00E94EB0021E0892B09F420E0822F9E
:100200000895FC01A48DA80FB92FB11DA35ABF4FAB
:100210002C91848D90E001968F739927848FA68905
:10022000B7892C93A089B1898C91837080648C9359
:10023000938D848D981306C00288F389E02D808108
:100240008F7D80830895EF92FF920F931F93CF933A
:10025000DF93EC0181E0888F9B8D8C8D98131AC001
:10026000E889F989808185FF15C09FB7F894EE89E8
:10027000FF896083E889F989808183708064808345
:100280009FBF81E090E0DF91CF911F910F91FF9090
:10029000EF900895F62E0B8D10E00F5F1F4F0F7338
:1002A0001127E02E8C8D8E110CC00FB607FCFACFF3
:1002B000E889F989808185FFF5CFCE010E9401018F
:1002C000F1CFEB8DEC0FFD2FF11DE35AFF4FF082C4
:1002D0009FB7F8940B8FEA89FB8980818062CFCF2A
:1002E000CF93DF93EC01888D8823B9F0AA89BB896D
:1002F000E889F9898C9185FD03C0808186FD0DC058
:100300000FB607FCF7CF8C9185FFF2CF808185FF78
:10031000EDCFCE010E940101E9CFDF91CF91089589
:10032000CF93DF93EC01A881B981EB01E881F981DA
:100330001097F1F03097B1F4EC018C819D81892BFD
:10034000C9F08C9190E00BC0DB0114968D919C91CB
:10035000892B81F0808190E0919581959109DF91C1
:10036000CF910895BF01CD01DF91CF910C94170D6E
:10037000309751F790E080E0F2CF0F931F93CF9327
:10038000DF93EC0188819981009759F02A813B81A4
:100390002617370730F081E0DF91CF911F910F9141
:1003A00008958B016F5F7F4F0E94510C009759F0A9
:1003B000998388831B830A832C813D81232B59F7E2
:1003C000FC011082E8CF80E0E7CFEF92FF920F931D
:1003D0001F93CF93DF936115710541F480E0DF91A6
:1003E000CF911F910F91FF90EF9008954115510506
:1003F000B1F07B01EC010C811D81040F151FB801C8
:100400000E94BD01882351F3288139818C819D810F
:10041000B701820F931F0E94200D1D830C8381E082
:10042000DECFCF93DF9300D0CDB7DEB769831A82DA
:1004300041E050E0BE016F5F7F4F0E94E5010F90E9
:100440000F90DF91CF910895CF93DF93EC018881D6
:100450009981009711F00E94C80B198218821D82A1
:100460001C821B821A82DF91CF910895CF93DF9374
:10047000EC01FB0144815581608171810E94E5019D
:10048000811103C0CE010E942402CE01DF91CF91E1
:100490000895EF92FF920F931F93CF93DF93EC0198
:1004A0007B018A01BA010E94BD0181110BC0CE01FE
:1004B0000E942402CE01DF91CF911F910F91FF90F6
:1004C000EF9008951D830C83B701888199810E9464
:1004D000200DF0CFFB0101900020E9F73197AF012B
:1004E000461B570B0C944902CF93DF93EC01FB01A1
:1004F0008617970749F0608171816115710541F098
:10050000448155810E944902CE01DF91CF91089527
:100510000E942402F9CFFC01118210821382128200
:10052000158214820C947402CF93DF93EC010E9425
:100530008B02CE01DF91CF910895EF92FF920F933E
:100540001F93CF93DF93EC017B01198218821B82EA
:100550001A821D821C8288E090E00E942C0B8C0184
:10056000B7010E948B02F70186819781F80197837A
:1005700086831D830C83DF91CF911F910F91FF9094
:10058000EF900895FC01118210821382128215826D
:100590001482FB0101900020E9F73197AF01461B5F
:1005A000570B0C944902FC0180819181009711F056
:1005B0000C94C80B0895AF92BF92CF92DF92EF9246
:1005C000FF920F931F93CF93DF93CDB7DEB72E9794
:1005D0000FB6F894DEBF0FBECDBF8C016B018091CA
:1005E000030290910402D80112969C938E93119766
:1005F000D8011196ED91FC9180910502909106022F
:100600008E179F0779F1A0900A02B0900B02E48048
:10061000F580B701CE0101960E948B02F701868119
:10062000978198878F83BE016F5F7F4FCE010996B8
:10063000F5010995B601CE0109960E9490017C0151
:10064000CE0109960E94D302CE0101960E94D302E8
:10065000F7FE08C0D8011196ED91FC9112978281A6
:100660009381C2CFC8012E960FB6F894DEBF0FBE9D
:10067000CDBFDF91CF911F910F91FF90EF90DF9051
:10068000CF90BF90AF9008950F931F93CF93DF93B8
:1006900000D000D000D0CDB7DEB78C016DE172E0A4
:1006A000CE0101960E948B02B801CE0101960E94F4
:1006B00036028C0141E050E062E271E00E94E50107
:1006C000811103C0C8010E942402B8018DE192E0AB
:1006D0000E947402CE0101960E94D30226960FB6A4
:1006E000F894DEBF0FBECDBFDF91CF911F910F9168
:1006F0000895EF92FF920F931F93CF93DF93CDB79F
:10070000DEB76E970FB6F894DEBF0FBECDBF64E2C2
:1007100071E0CE0101960E94C202CE0101960E94B4
:100720004403CE0101960E94D3020BE511E0D801EB
:100730008D918D01882309F444C01C8A1B8A1E8A6E
:100740001D8A188E1F8A4AE0BE016F5F7F4FCD0160
:100750008B5591400E946B0ABE016F5F7F4FCE01A7
:1007600043960E946A0265E371E0CE0101960E9401
:10077000C202BE016D5E7F4FCE0101960E9436021D
:100780007C0141E050E063E371E00E94E5018111EA
:1007900003C0C7010E942402B701CE0149960E94FE
:1007A0008B02CE0149960E944403CE0149960E94D5
:1007B000D302CE0101960E94D302CE0143960E943D
:1007C000D302B1E005361B0709F0B1CFEBE5F1E04C
:1007D0008AE0DF011D928A95E9F76E960FB6F894CC
:1007E000DEBF0FBECDBFDF91CF911F910F91FF9064
:1007F000EF900895CF93C1E085E691E00E94EB0071
:10080000892B09F4F7C080910C0290910D02892B7D
:1008100009F054C02FB7F894809157019091580176
:10082000A0915901B0915A012FBF80932302909358
:100830002402A0932502B09326026AE371E081E1CD
:1008400092E00E946A0285E691E00E94C900682F4A
:1008500080910C0290910D029C012F5F3F4F3093CD
:100860000D0220930C028330910508F0BDC051E0C9
:10087000663609F450E02430310519F441E065365C
:1008800009F440E0511103C0442309F45EC0109202
:100890000D0210920C0210920F0210920E026AE3E7
:1008A00071E081E192E00E946A026AE371E087E10F
:1008B00092E00E946A02109210029ECF8091230261
:1008C00090912402A0912502B0912602845D9E4F52
:1008D000AF4FBF4F2FB7F894409157015091580137
:1008E0006091590170915A012FBF84179507A6078F
:1008F000B70708F0A8CF6AE371E087E192E00E94B1
:100900006A0210920D0210920C0210920F021092C5
:100910000E026AE371E081E192E00E946A021092A5
:1009200010022FB7F8948091570190915801A0912F
:100930005901B0915A012FBF809323029093240252
:10094000A0932502B09326027ECF0497029720F54C
:100950001092100287E192E00E94110280910C0235
:1009600090910D02069709F047CF40E150E070E00A
:1009700060E080911702909118020E944B096A5F13
:100980007F4F70930F0260930E026AE371E087E17C
:1009900092E00E946A0230CF2730310508F42CCF54
:1009A00080910E0290910F022817390738F41092A7
:1009B000100281E192E00E9411021ECF90930D027D
:1009C00080930C02892B09F417CF81E192E00E94F9
:1009D000110210920D0210920C0210920F0210924E
:1009E0000E02C093100208CF2430310509F0ADCFBC
:1009F00050E044CFCF9108950E94F70081110C94EC
:100A0000FA0308951F920F920FB60F9211242F939D
:100A10003F934F935F936F937F938F939F93AF9386
:100A2000BF93EF93FF9385E691E00E940101FF9150
:100A3000EF91BF91AF919F918F917F916F915F9156
:100A40004F913F912F910F900FBE0F901F901895CF
:100A50001F920F920FB60F9211242F938F939F9393
:100A6000EF93FF93E0917501F09176018081E09121
:100A70007B01F0917C0182FD1BC0908180917E0101
:100A80008F5F8F7320917F01821741F0E0917E018B
:100A9000F0E0EB59FE4F958F80937E01FF91EF912F
:100AA0009F918F912F910F900FBE0F901F901895CF
:100AB0008081F4CF1F920F920FB60F9211242F93C3
:100AC0003F938F939F93AF93BF93809157019091E2
:100AD0005801A0915901B0915A013091560123E07B
:100AE000230F2D3758F50196A11DB11D20935601F6
:100AF0008093570190935801A0935901B0935A01E4
:100B00008091520190915301A0915401B0915501EF
:100B10000196A11DB11D8093520190935301A093A2
:100B20005401B0935501BF91AF919F918F913F9127
:100B30002F910F900FBE0F901F90189526E8230F4E
:100B40000296A11DB11DD2CFCF93DF93E5E6F1E070
:100B50001382128288EE93E0A0E0B0E08483958354
:100B6000A683B78384E191E09183808385EC90E054
:100B70009587848784EC90E09787868780EC90E067
:100B8000918B808B81EC90E0938B828B82EC90E058
:100B9000958B848B86EC90E0978B868B118E128ED2
:100BA000138E148EC2E0D2E01E821D8286E090E099
:100BB0000E942C0BFC01118210821382128215827A
:100BC00014829A8389839C838B8384E992E099873A
:100BD00088876AE371E081E192E00E94C2026AE3E1
:100BE00071E087E192E00E94C2026AE371E08DE168
:100BF00092E0DF91CF910C94C202CF93DF93CDB7F7
:100C0000DEB7E0970FB6F894DEBF0FBECDBF789485
:100C100084B5826084BD84B5816084BD85B5826001
:100C200085BD85B5816085BD80916E0081608093B2
:100C30006E0010928100809181008260809381001B
:100C4000809181008160809381008091800081602B
:100C5000809380008091B10084608093B100809186
:100C6000B00081608093B00080917A0084608093AE
:100C70007A0080917A00826080937A0080917A0075
:100C8000816080937A0080917A00806880937A00F6
:100C90001092C10020E131E0A6E0B1E08D9190E03A
:100CA000FC01E656FF4F44918A579F4FFC01849107
:100CB0008823C9F090E0880F991FFC01EE58FF4F80
:100CC00065917491FC01E859FF4F059114919FB70C
:100CD000F894FB018081409584238083F801808112
:100CE000842380839FBF2A173B07C1F689E793E0DF
:100CF00090932802809327026FEF70E081E192E0E9
:100D00000E94BD016AE371E087E192E00E946A02FD
:100D10006AE371E081E192E00E946A026AE371E0B5
:100D20008DE192E00E946A021092100210920F026E
:100D300010920E0210920D0210920C0210922302D9
:100D4000109224021092250210922602E091750161
:100D5000F091760182E08083E0917101F09172015F
:100D60001082E0917301F09174018FEC80831092F6
:100D70007D01E0917901F0917A0186E08083E09134
:100D80007701F0917801808180618083E091770123
:100D9000F0917801808188608083E0917701F09103
:100DA0007801808180688083E0917701F0917801FB
:100DB00080818F7D80838E01075E1F4FAA24A394BC
:100DC000B12C27E4C22E21E0D22E33E0632E77240B
:100DD00073948091100210921002882309F46CC061
:100DE00061E172E0CE0101960E948B028D819E81AD
:100DF000892B51F06BE371E089819A810E94170D74
:100E0000FF24F394892B09F0F12CCE0101960E9466
:100E1000D302FF2009F48DC0E0912702F09128024F
:100E200009956DE172E0CE0141960E948B028E8998
:100E30008F938D898F93DF92CF921F926F921F9322
:100E40000F930E94270DB801CE0109960E94C2029D
:100E50006CE471E0CE0101960E94C202BE01675FA0
:100E60007F4FCE0101960E943602BE016F5E7F4F1A
:100E70000E943602DC0114964D915C9115976D919C
:100E80007C9185E691E00E948D00CE0101960E9442
:100E9000D302CE0109960E94D302CE0141960E9450
:100EA000D3026AE371E08DE192E00E946A020FB61C
:100EB000F894DEBF0FBECDBFA6E0B1E030E020E089
:100EC0008D9190E0FC01E255FF4F5491FC01E656F4
:100ED000FF4F4491FC01EA57FF4FE491EE23E1F00C
:100EE000552359F0533009F462C108F055C151300F
:100EF00009F463C1523009F464C1F0E0EE0FFF1F42
:100F0000E458FF4F85919491FC018081482321F0A2
:100F1000F901E55AFE4F70822F5F3F4F2A303105AD
:100F200079F60E94F700882309F453CF0E94FA0350
:100F300042CF61E172E0CE0185960E948B02BE0134
:100F40006B5D7F4FCE018E960E94DB02EFA5F8A964
:100F500080910502909106028E179F0741F06481EF
:100F60007581CE0185960E94900197FF6AC0BE01EF
:100F70006B5D7F4FCE0141960E948B02188E1F8AB7
:100F8000E0900A02F0900B02BE016F5E7F4FCE012F
:100F900001960E948B028F89988D98878F83BE015E
:100FA0006F5F7F4FCE010996F7010995BE01675F1C
:100FB0007F4FCE018B960E94DB02CE0109960E94E4
:100FC000D302CE0101960E94D302ECA5FDA580912B
:100FD0000502909106028E179F0709F06AC0809162
:100FE000070290910802892BD1F586E090E00E94DB
:100FF0002C0B7C01BE016F5E7F4F0E949D02F09220
:101000000402E0920302E0910502F0910602F182EF
:10101000E082D70111961C921E921396FC93EE93D8
:101020001297B0920802A0920702E0910502F09197
:1010300006028080918098AA8FA6CE0141960E94D8
:10104000D302EFA5F8A90480F581E02D0680F78191
:10105000E02D0995CE0185960E94D3022DCF86E022
:1010600090E00E942C0B7C01BE016F5E7F4F0E94BE
:101070009D02E0910502F091060280819181D701E5
:1010800011969C938E931396FC93EE931297A081E6
:10109000B1811396FC92EE921297F182E0828091D8
:1010A000070290910802019690930802809307022C
:1010B000BCCF80900A0290900B02E480F580B701CB
:1010C000CE0109960E948B02F70186819781988B49
:1010D0008F87BE01675F7F4FCE014F96F401099560
:1010E000E0900A02F0900B02BE016F5E7F4FCE01CE
:1010F00001960E948B028F89988D98878F83BE01FD
:101100006F5F7F4FC801F7010995BE01615E7F4F98
:10111000C8010E9490014C01C8010E94D302CE0177
:1011200001960E94D302CE014F960E94D302CE01B7
:1011300009960E94D302ECA4FDA497FE2BC086E082
:1011400090E00E942C0B4C01BE016F5E7F4F0E940D
:101150009D02D7018D919C911197F4019183808319
:10116000F382E282892B89F4909204028092030236
:10117000F701918280828091070290910802019686
:10118000909308028093070256CFED91FC919382D1
:101190008282EECF47014FCF5730B1F05830D1F0B7
:1011A000543009F0AACE809180008F7D03C08091D9
:1011B00080008F7780938000A0CE84B58F7784BD28
:1011C0009CCE84B58F7DFBCF8091B0008F778093CC
:1011D000B00093CE8091B0008F7DF9CFCF93DF9395
:1011E0008DE192E00E94D30287E192E00E94D30257
:1011F00081E192E00E94D302E0910302F0910402A7
:101200008091070290910802892B71F10280F3818D
:10121000E02DF0930402E09303020190F081E02DB1
:10122000C481D581209731F0CE010E94D302CE0136
:101230000E94C80BE0910302F09104028081918129
:10124000009711F00E94C80BE0910302F091040294
:101250001182108280910702909108020197909369
:10126000080280930702C8CFC481D581209731F04E
:10127000CE010E94D302CE010E94C80B80910302CE
:1012800090910402009721F0DF91CF910C94C80B4C
:10129000DF91CF910895B0E0A0E0E1E5F9E00C9492
:1012A000E10A5C016B017A016115710519F0FB011E
:1012B00091838083E114F10451F0C7010297839771
:1012C00030F040E030E020E090E072C05E01E501E7
:1012D0002196F5011081812F90E00E94620A892BEE
:1012E000A9F71D3201F52196F501118101E0E11404
:1012F000F10409F4DAC0F0E1EF16F10409F082C05C
:10130000103359F488818F7D883509F076C01981B2
:1013100022960260F0E1EF2EF12C812C912CA12C71
:1013200088E0B82E8CC01B3221F4E5012296F5012D
:10133000118100E0DCCFEAE0EE16F10409F4BBC055
:10134000F0E1EF16F10409F06DC0E7CF78E0E72E89
:10135000F12C812C912CA12C60E1B62E70C03FE9BC
:10136000310F3A3128F439EA332E80C021E09AC097
:10137000302F3170C114D10431F0222309F12197AB
:10138000F601D183C08327FF21C060E070E080E0D8
:1013900090E8311104C06FEF7FEF8FEF9FE722E2FB
:1013A00030E030932A0220932902462F372F282F2E
:1013B000642F732F822FCDB7DEB7E1E10C94FD0AC5
:1013C00001FF04C02297F601D183C083332341F08B
:1013D00090958095709561957F4F8F4F9F4FE5CF8A
:1013E00097FFE3CF82E290E090932A028093290254
:1013F0006FEF7FEF8FEF9FE7D8CF10E3E114F10499
:1014000009F4A4CF28E0E216F10409F4A2CF0CF00D
:1014100092CF812C912CA12CE0E4BE2E82E0E81624
:10142000F10469F060E070E080E090E897010F2C33
:10143000000C440B550B0E94B30A49015A0120E0ED
:1014400060E070E0CB0127010F2C000C66087708E4
:10145000FE0150ED352E310E39E0331540F43FEBEF
:10146000310F3A3108F07BCF49EC342E310E3E1467
:101470001F040CF07DCF27FD15C086169706A80621
:10148000B90678F0A30192010E94A30A630D711DB1
:10149000811D911D61307105810520E8920708F4D6
:1014A00065CF2FEF21961081D3CF103309F42ACFC7
:1014B0002AE0E22EF12C9CEC892E982CA82C9CE0A2
:1014C000B92EBDCF91110C94900A803219F0895039
:1014D0008550C8F70895BB274A3031F4992322F488
:1014E000BDE2909581959F4F0C94770ABB27FB0135
:1014F0005527AA27880F991FAA1FA41710F0A41B0D
:1015000083955051B9F7A05DAA3308F0A95DA19366
:10151000009779F7B111B1931192CB010C94930A12
:10152000992788270895DC01FC01672F71917723A3
:10153000E1F7329704C07C916D9370836291AE178E
:10154000BF07C8F30895DB018F939F930E94D50ACC
:10155000BF91AF91A29F800D911DA39F900DB29F4F
:10156000900D11240895A1E21A2EAA1BBB1BFD01A8
:101570000DC0AA1FBB1FEE1FFF1FA217B307E40772
:10158000F50720F0A21BB30BE40BF50B661F771FCA
:10159000881F991F1A9469F76095709580959095AA
:1015A0009B01AC01BD01CF0108950E94170BA59FBF
:1015B000900DB49F900DA49F800D911D112408954E
:1015C0002F923F924F925F926F927F928F929F9253
:1015D000AF92BF92CF92DF92EF92FF920F931F9341
:1015E000CF93DF93CDB7DEB7CA1BDB0B0FB6F894F2
:1015F000DEBF0FBECDBF09942A88398848885F8432
:101600006E847D848C849B84AA84B984C884DF80A2
:10161000EE80FD800C811B81AA81B981CE0FD11D86
:101620000FB6F894DEBF0FBECDBFED010895A29FA7
:10163000B001B39FC001A39F700D811D1124911DA6
:10164000B29F700D811D1124911D0895EE0FFF1F93
:101650000590F491E02D09940F931F93CF93DF939E
:101660008230910510F482E090E0E0912D02F0913B
:101670002E0230E020E0B0E0A0E0309799F4211590
:10168000310509F44AC0281B390B24303105D8F53F
:101690008A819B816115710589F1FB0193838283A6
:1016A000FE0111C040815181028113814817590701
:1016B000E0F04817590799F4109761F012960C93CF
:1016C000129713961C933296CF01DF91CF911F9101
:1016D0000F91089500932D0210932E02F4CF21153F
:1016E000310551F04217530738F0A901DB019A0187
:1016F000BD01DF01F801C1CFEF01F9CF90932E02B8
:1017000080932D02CDCFFE01E20FF31F81939193C1
:101710002250310939832883D7CF20912B02309171
:101720002C02232B41F420910201309103013093CC
:101730002C0220932B0220910001309101012115F0
:10174000310541F42DB73EB7409104015091050198
:10175000241B350BE0912B02F0912C02E217F307CA
:10176000A0F42E1B3F0B2817390778F0AC014E5F11
:101770005F4F2417350748F04E0F5F1F50932C0220
:1017800040932B02819391939FCFF0E0E0E09CCFB8
:10179000CF93DF930097E9F0FC0132971382128216
:1017A000A0912D02B0912E02ED0130E020E01097C3
:1017B000A1F420813181820F931F20912B0230915F
:1017C0002C022817390709F061C0F0932C02E0932E
:1017D0002B02DF91CF910895EA01CE17DF07E8F5DC
:1017E0004A815B819E0141155105B1F7E901FB83F7
:1017F000EA8349915991C40FD51FEC17FD0761F495
:10180000808191810296840F951FE90199838883D5
:10181000828193819B838A83F0E0E0E012968D9130
:101820009C9113970097B9F52D913C911197CD019B
:101830000296820F931F20912B0230912C022817C1
:10184000390739F6309751F510922E0210922D0279
:10185000B0932C02A0932B02BCCFD383C2834081D0
:101860005181840F951FC817D90761F44E5F5F4FF0
:1018700088819981480F591F518340838A819B81B8
:10188000938382832115310509F0B0CFF0932E02A6
:10189000E0932D029ECFFD01DC01C0CF13821282A6
:1018A000D7CFB0E0A0E0E7E5FCE00C94E20A8C01C1
:1018B000009751F4CB010E942C0B8C01C801CDB7CD
:1018C000DEB7E0E10C94FE0AFC01E60FF71F9C0175
:1018D00022503109E217F30708F49DC0D901CD91D8
:1018E000DC911197C617D70798F0C530D10530F3B2
:1018F000CE0104978617970708F3C61BD70B2297CC
:10190000C193D1936D937C93CF010E94C80BD6CF26
:101910005B01AC1ABD0A4C018C0E9D1EA0912D02DC
:10192000B0912E02512C412CF12CE12C109731F565
:1019300080912B0290912C028815990509F05CC0CA
:101940004616570608F058C0809100019091010199
:10195000009741F48DB79EB7409104015091050165
:10196000841B950BE817F90708F055C0F0932C027B
:10197000E0932B02F90171836083A0CF8D919C913C
:10198000119712966C90129713967C901397A81546
:10199000B90559F56C0142E0C40ED11CCA14DB0430
:1019A00020F1AC014A195B09DA011296159780F013
:1019B0006282738251834083D9016D937C93E114D9
:1019C000F10471F0D7011396FC93EE93129776CF42
:1019D00022968C0F9D1FF90191838083F301EFCF35
:1019E000F0932E02E0932D0269CF4816590608F4B1
:1019F0002C017D01D3019ACFCB010E942C0B7C01DD
:101A0000009749F0AE01B8010E940E0DC8010E9476
:101A1000C80B870153CF10E000E050CFFB01DC0181
:101A200002C001900D9241505040D8F70895FB013B
:101A3000DC018D91019080190110D9F3990B089563
:101A4000FB01DC0101900D920020E1F70895AEE06A
:101A5000B0E0EDE2FDE00C94EE0A0D891E898F895D
:101A6000988D26E02C831A83098397FF02C080E0BB
:101A700090E801979E838D83AE01455E5F4F698D2F
:101A80007A8DCE0101960E94570D4D815E8157FDE2
:101A90000AC02F813885421753070CF49A01020FB0
:101AA000131FF80110822E96E4E00C940A0BABE0B1
:101AB000B0E0EDE5FDE00C94E00A7C013B018A0119
:101AC000FC0117821682838181FFC8C1CE01019675
:101AD0005C01F7019381F30193FD859193FF81915F
:101AE0003F01882309F453C1853239F493FD859170
:101AF00093FF81913F01853229F4B70190E00E9464
:101B0000470FE7CF912C212C312CFFE1F31538F052
:101B10008B3211F190F4803209F1833229F137FCD4
:101B20003CC020ED280F2A3050F536FE20C08AE058
:101B3000989E200D1124922E06C08D3291F0803394
:101B400071F7689430F8F30193FD859193FF8191CB
:101B50003F018111DACF21C0689431F8689432F8DE
:101B6000F2CF689433F8EFCF689434F8ECCFEAE022
:101B70002E9E200D1124222E689435F8E4CF8E324B
:101B800029F436FC04C1689436F8DDCF8C3619F49C
:101B9000689437F8D8CF8836B1F2982F9F7D955446
:101BA0009330E0F08336A1F18337C1F1833509F03A
:101BB00063C02801F2E04F0E511CF801C080D180B3
:101BC000692D70E036FC02C06FEF7FEFC6010E9406
:101BD000310F4C01689437F882010AC00C5F1F4F27
:101BE000FFE3F98388248394912C6501E89437F806
:101BF00033FE2DC0522C8114910471F5552009F447
:101C000068CFB70180E290E00E94470F5A94F6CF68
:101C1000F801808189830E5F1F4FE4CF2801F2E035
:101C20004F0E511CF801C080D180692D70E036FC48
:101C300002C06FEF7FEFC6010E943C0F4C01820192
:101C4000D5CFB70180E290E00E94470F2A94281474
:101C5000190409F0B0F7CECFF60137FC859137FEB5
:101C600081916F01B70190E00E94470F51105A9483
:101C7000F1E08F1A9108BFCF843619F0893609F048
:101C800077C0F80137FE6BC06081718182819381DA
:101C90000C5F1F4FF32DFF763F2E97FF09C09095E5
:101CA0008095709561957F4F8F4F9F4F689437F85F
:101CB0002AE030E0A5010E94770FC82ECA188C2CAC
:101CC000432C36FE0CC0E89440F8C91440F434FEAE
:101CD00005C032FC03C0F32DFE7E4F2E892C44FE3E
:101CE00095C0FE01EC0DF11D8081803309F087C0A5
:101CF000242D297E422E842D8870582E43FC95C0B9
:101D000040FE8FC09C2C821418F42C0C922C981836
:101D100044FE91C0B70180E390E00E94470F42FE6D
:101D200009C088E790E041FE02C088E590E0B70175
:101D30000E94470FC91408F48AC0CA94D12C9FEF9F
:101D4000C91AD90ACA0CDB1CF60182916F01B701CE
:101D500090E00E94470FAC14BD04B1F74FCF6081F3
:101D60007181072E000C880B990B0E5F1F4F92CFCD
:101D7000D32CE894D4F82AE030E0853739F1232DCC
:101D8000297FD22E8F3601F148F48835A9F0F7016A
:101D9000868197812B96E2E10C94FC0A803749F00A
:101DA0008837A9F7D4FE02C06894D2F820E130E069
:101DB0000DC06894D4F8F6CF34FE03C0822F86603D
:101DC000D82E20E132E002C028E030E0F801D7FE52
:101DD0000FC060817181828193810C5F1F4FA501CB
:101DE0000E94770FC82ECA183D2CE89437F867CFA9
:101DF0006081718190E080E00E5F1F4FF0CF42FC68
:101E000002C0839478CF8394839475CF842D867891
:101E100009F471CFF6CFB70180E290E00E94470F3E
:101E200083948214C0F3512C73CF522C581882140F
:101E300008F46ECFF8CF842D867809F47BCF8BE23F
:101E400041FE80E247FC8DE2B70190E071CFB7011F
:101E500080E390E00E94470F9A946CCF8FEF9FEF42
:101E600099CFFC010590615070400110D8F7809522
:101E700090958E0F9F1F0895FC0161507040019056
:101E80000110D8F7809590958E0F9F1F08950F939E
:101E90001F93CF93DF93182F092FEB018B8181FDC7
:101EA00009C01FEF0FEF812F902FDF91CF911F916E
:101EB0000F91089582FF14C02E813F818C819D81F6
:101EC000281739073CF4E881F981CF0101969983FD
:101ED000888310838E819F8101969F838E83E3CFB9
:101EE000E885F985812F0995892BA1F3DACFFA01CD
:101EF000AA27283051F1203181F1E8946F936E7F49
:101F00006E5F7F4F8F4F9F4FAF4FB1E03ED0B4E039
:101F10003CD0670F781F891F9A1FA11D680F791F7A
:101F20008A1F911DA11D6A0F711D811D911DA11D8B
:101F300020D009F468943F912AE0269F112430199B
:101F4000305D3193DEF6CF010895462F4770405D36
:101F50004193B3E00FD0C9F7F6CF462F4F70405DE5
:101F60004A3318F0495D31FD4052419302D0A9F740
:101F7000EACFB4E0A6959795879577956795BA953A
:101F8000C9F700976105710508959B01AC010A2E00
:101F900006945795479537952795BA95C9F7620FD7
:101FA000731F841F951FA01D089510E0C2E6D0E0A6
:101FB00004C0FE010E94260B2196C336D107C9F743
:041FC000F894FFCFC3
:101FC40000002F02800002030405060708090A0B1B
:101FD4000000000023018D00BA007001EB00C9006D
:101FE400DD003B0064657669636528627573506F34
:101FF400696E74290064657374280067657450659C
:1020040072636570747300253032580066666665C5
:022014000000CA
:00000001FF
