:100000000C9463000C948B000C948B000C948B006C
:100010000C948B000C948B000C948B000C948B0034
:100020000C948B000C948B000C948B000C948B0024
:100030000C948B000C948B000C948B000C948B0014
:100040000C9489050C948B000C9457050C94310585
:100050000C948B000C948B000C948B000C948B00F4
:100060000C948B000C948B000000000023002600F1
:10007000290000000008000201000003040700003E
:1000800000000000000000000000250028002B00F8
:1000900000000000240027002A00040404040404D3
:1000A0000404020202020202030303030303010227
:1000B00004081020408001020408102001020408F6
:1000C0001020D305B00811241FBECFEFD8E0DEBF4B
:1000D000CDBF22E0AEE4B1E001C01D92A432B20770
:1000E000E1F711E0A0E0B1E0EEEDFEE102C0059025
:1000F0000D92AE34B107D9F710E0C2E6D0E004C0EB
:100100002197FE010E94B30AC136D107C9F70E94A8
:100110002C060C94620F0C940000CF93DF9390E0B8
:10012000FC01E255FF4F249186569F4FFC018491BC
:100130008823C1F090E0880F991FFC01E057FF4F22
:10014000C591D491FC01EA57FF4FA591B4919FB797
:10015000F8948881E22FE0958E2388838C91E823A0
:10016000EC939FBFDF91CF910895AF92BF92CF9252
:10017000DF92EF92FF920F931F93CF93DF936C0167
:100180007B018B01040F151FEB015E01AE18BF0848
:10019000C017D10759F06991D601ED91FC910190FA
:1001A000F081E02DC6010995892B79F7C501DF9112
:1001B000CF911F910F91FF90EF90DF90CF90BF9064
:1001C000AF900895FC01538D448D252F30E0842F8E
:1001D00090E0821B930B541710F0CF96089501976F
:1001E0000895FC01918D828D981761F0A28DAE0F5C
:1001F000BF2FB11D5D968C91928D9F5F9F73928FE3
:1002000090E008958FEF9FEF0895FC01918D828D0E
:10021000981731F0828DE80FF11D858D90E00895DB
:100220008FEF9FEF0895FC01918D228D892F90E033
:10023000805C9F4F821B91098F73992708958AE5EF
:1002400091E00E94130121E0892B09F420E0822F24
:100250000895FC01A48DA80FB92FB11DA35ABF4F5B
:100260002C91848D90E001968F739927848FA689B5
:10027000B7892C93A089B1898C91837080648C9309
:10028000938D848D981306C00288F389E02D8081B8
:100290008F7D80830895EF92FF920F931F93CF93EA
:1002A000DF93EC0181E0888F9B8D8C8D98131AC0B1
:1002B000E889F989808185FF15C09FB7F894EE8998
:1002C000FF896083E889F9898081837080648083F5
:1002D0009FBF81E090E0DF91CF911F910F91FF9040
:1002E000EF900895F62E0B8D10E00F5F1F4F0F73E8
:1002F0001127E02E8C8D8E110CC00FB607FCFACFA3
:10030000E889F989808185FFF5CFCE010E94290116
:10031000F1CFEB8DEC0FFD2FF11DE35AFF4FF08273
:100320009FB7F8940B8FEA89FB8980818062CFCFD9
:10033000CF93DF93EC01888D8823B9F0AA89BB891C
:10034000E889F9898C9185FD03C0808186FD0DC007
:100350000FB607FCF7CF8C9185FFF2CF808185FF28
:10036000EDCFCE010E942901E9CFDF91CF91089511
:1003700090E0FC01EE58FF4F2491FC01E255FF4F45
:100380003491FC01E656FF4FE491EE23C1F12223A4
:1003900039F02330E9F090F4213001F1223011F1ED
:1003A000F0E0EE0FFF1FE859FF4FA591B491EC91DB
:1003B000E32381E090E029F580E008952730A9F05B
:1003C0002830C9F0243061F7809180008F7D03C010
:1003D000809180008F7780938000E2CF84B58F7703
:1003E00084BDDECF84B58F7DFBCF8091B0008F7749
:1003F0008093B000D5CF8091B0008F7DF9CF80E0A1
:1004000090E00895CF93DF93EC01A881B981EB01CF
:10041000E881F9811097F1F03097B1F4EC018C810B
:100420009D81892BC9F08C9190E00BC0DB01149663
:100430008D919C91892B81F0808190E0919581959F
:100440009109DF91CF910895BF01CD01DF91CF9147
:100450000C94A40C309751F790E080E0F2CF0F930A
:100460001F93CF93DF93EC0188819981009759F016
:100470002A813B812617370730F081E0DF91CF9149
:100480001F910F9108958B016F5F7F4F0E94DE0BCC
:10049000009759F0998388831B830A832C813D81BF
:1004A000232B59F7FC011082E8CF80E0E7CFEF92D1
:1004B000FF920F931F93CF93DF936115710541F462
:1004C00080E0DF91CF911F910F91FF90EF90089501
:1004D00041155105B1F07B01EC010C811D81040F28
:1004E000151FB8010E942F02882351F328813981FA
:1004F0008C819D81B701820F931F0E94AD0C1D83DB
:100500000C8381E0DECFCF93DF9300D0CDB7DEB791
:1005100069831A8241E050E0BE016F5F7F4F0E9405
:1005200057020F900F90DF91CF910895CF93DF93F3
:10053000EC0188819981009711F00E94550B198276
:1005400018821D821C821B821A82DF91CF9108952E
:10055000CF93DF93EC01FB01448155816081718170
:100560000E945702811103C0CE010E949602CE0163
:10057000DF91CF910895EF92FF920F931F93CF9346
:10058000DF93EC017B018A01BA010E942F028111E5
:100590000BC0CE010E949602CE01DF91CF911F9138
:1005A0000F91FF90EF9008951D830C83B701888110
:1005B00099810E94AD0CF0CF50E040E063E271E021
:1005C0000C94BB02CF93DF93EC01FB0186179707D6
:1005D00049F0608171816115710541F04481558157
:1005E0000E94BB02CE01DF91CF9108950E94960236
:1005F000F9CFFC01118210821382128215821482BB
:100600000C94E202CF93DF93EC010E94F902CE0139
:10061000DF91CF910895EF92FF920F931F93CF93A5
:10062000DF93EC017B01198218821B821A821D82E2
:100630001C8288E090E00E94B90A8C01B7010E94F8
:10064000F902F70186819781F801978386831D83DC
:100650000C83DF91CF911F910F91FF90EF90089540
:10066000FC01118210821382128215821482FB0116
:1006700001900020E9F73197AF01461B570B0C940E
:10068000BB02FC0180819181009711F00C94550B05
:100690000895AF92BF92CF92DF92EF92FF920F93A5
:1006A0001F93CF93DF93CDB7DEB72E970FB6F89495
:1006B000DEBF0FBECDBF8C016B018091F801909120
:1006C000F901D80112969C938E931197D801119637
:1006D000ED91FC918091FA019091FB018E179F079B
:1006E00079F1A090FF01B0900002E480F580B7019D
:1006F000CE0101960E94F902F701868197819887C1
:100700008F83BE016F5F7F4FCE010996F50109957A
:10071000B601CE0109960E9402027C01CE01099623
:100720000E944103CE0101960E944103F7FE08C0DA
:10073000D8011196ED91FC91129782819381C2CFDD
:10074000C8012E960FB6F894DEBF0FBECDBFDF9165
:10075000CF911F910F91FF90EF90DF90CF90BF90BE
:10076000AF9008950F931F93CF93DF9300D000D0E5
:1007700000D0CDB7DEB78C0162E172E0CE01019608
:100780000E94F902B801CE0101960E94A8028C01D4
:1007900041E050E068E171E00E945702811103C01E
:1007A000C8010E949602B80182E192E00E94E20232
:1007B000CE0101960E94410326960FB6F894DEBF43
:1007C0000FBECDBFDF91CF911F910F910895CF93B1
:1007D000DF9300D000D000D0CDB7DEB780915901B3
:1007E0008823C9F06AE171E0CE0101960E943003CE
:1007F000CE0101960E94B203CE0101960E944103F0
:100800001092590126960FB6F894DEBF0FBECDBFE9
:10081000DF91CF91089580915801882389F064E297
:1008200071E0CE0101960E943003CE0101960E9434
:10083000B203CE0101960E94410310925801E2CF0B
:10084000809157018823F1F26EE271E0CE010196AA
:100850000E943003CE0101960E94B203CE010196A0
:100860000E94410310925701CDCFCF93C1E08AE59A
:1008700091E00E941301892B09F4EBC080910102E1
:1008800090910202892B09F04EC02FB7F894809105
:10089000530190915401A0915501B09156012FBF81
:1008A0008093180290931902A0931A02B0931B022E
:1008B00086E092E00E94DC028AE591E00E94F1006D
:1008C000682F80910102909102029C012F5F3F4F9F
:1008D00030930202209301028330910508F0B3C0E7
:1008E00051E0663609F450E02430310519F441E056
:1008F000653609F440E0511103C0442309F456C0A1
:10090000109202021092010210920402109203024D
:1009100086E092E00E94DC028CE092E00E94DC0221
:1009200010920502A4CF8091180290911902A09113
:100930001A02B0911B02845D9E4FAF4FBF4F2FB77D
:10094000F894409153015091540160915501709178
:1009500056012FBF84179507A607B70708F0ACCF3D
:100960008CE092E00E94DC021092020210920102DE
:10097000109204021092030286E092E00E94DC02D0
:10098000109205022FB7F894809153019091540171
:10099000A0915501B09156012FBF809318029093FA
:1009A0001902A0931A02B0931B0286CF04970297F4
:1009B00010F5109205028CE092E00E948302809173
:1009C000010290910202069709F051CF40E150E0F8
:1009D00070E060E080910C0290910D020E940D0980
:1009E0006A5F7F4F70930402609303028CE092E091
:1009F0000E94DC023CCF2730310508F438CF8091CB
:100A00000302909104022817390738F41092050266
:100A100086E092E00E9483022ACF909302028093A4
:100A20000102892B09F423CF86E092E00E94830221
:100A3000109202021092010210920402109203021C
:100A4000C093050214CF2430310509F0AFCF50E038
:100A50004ECFCF9108950E941F0181110C9435044F
:100A600008951F920F920FB60F9211242F933F9368
:100A70004F935F936F937F938F939F93AF93BF93A6
:100A8000EF93FF938AE591E00E942901FF91EF9196
:100A9000BF91AF919F918F917F916F915F914F9196
:100AA0003F912F910F900FBE0F901F9018951F929E
:100AB0000F920FB60F9211242F938F939F93EF9362
:100AC000FF93E0916A01F0916B018081E0917001E8
:100AD000F091710182FD1BC09081809173018F5F45
:100AE0008F7320917401821741F0E0917301F0E05F
:100AF000E65AFE4F958F80937301FF91EF919F917E
:100B00008F912F910F900FBE0F901F90189580819D
:100B1000F4CF1F920F920FB60F9211242F933F9391
:100B20008F939F93AF93BF93809153019091540102
:100B3000A0915501B09156013091520123E0230F4D
:100B40002D3758F50196A11DB11D209352018093B8
:100B5000530190935401A0935501B0935601809195
:100B60004E0190914F01A0915001B0915101019619
:100B7000A11DB11D80934E0190934F01A093500190
:100B8000B0935101BF91AF919F918F913F912F9160
:100B90000F900FBE0F901F90189526E8230F029616
:100BA000A11DB11DD2CFCF93DF93EAE5F1E013820F
:100BB000128288EE93E0A0E0B0E084839583A68360
:100BC000B7838AE091E09183808385EC90E09587FC
:100BD000848784EC90E09787868780EC90E0918B07
:100BE000808B81EC90E0938B828B82EC90E0958BF4
:100BF000848B86EC90E0978B868B118E128E138EF1
:100C0000148EC7EFD1E01E821D8286E090E00E9424
:100C1000B90AFC0111821082138212821582148299
:100C20009A8389839C838B8382E093E0998788876A
:100C300063E271E086E092E00E94300363E271E0DB
:100C40008CE092E00E94300363E271E082E192E086
:100C5000DF91CF910C943003CF93DF93CDB7DEB704
:100C6000E0970FB6F894DEBF0FBECDBF789484B581
:100C7000826084BD84B5816084BD85B5826085BD98
:100C800085B5816085BD80916E00816080936E0026
:100C90001092810080918100826080938100809118
:100CA00081008160809381008091800081608093C9
:100CB00080008091B10084608093B1008091B00089
:100CC00081608093B00080917A00846080937A0084
:100CD00080917A00826080937A0080917A008160AE
:100CE00080937A0080917A00806880937A001092D5
:100CF000C10082E00E948D0083E00E948D0084E0AC
:100D00000E948D0087EE93E090931D0280931C0259
:100D10006FEF70E086E092E00E942F028CE092E09C
:100D20000E94DC0286E092E00E94DC0282E192E016
:100D30000E94DC021092050210920402109203023B
:100D400010920202109201021092180210921902DF
:100D500010921A0210921B02E0916A01F0916B014D
:100D600082E08083E0916601F09167011082E0915A
:100D70006801F09169018FEC808310927201E0911B
:100D80006E01F0916F0186E08083E0916C01F0913B
:100D90006D01808180618083E0916C01F0916D0133
:100DA000808188608083E0916C01F0916D01808189
:100DB00080688083E0916C01F0916D0180818F7D6E
:100DC00080838E01075E1F4FAA24A394B12C94E464
:100DD000C92E91E0D92E23E0622E7724739480915E
:100DE000050210920502882309F46AC066E072E0E9
:100DF000CE0101960E94F9028D819E81892B51F0CE
:100E000068E371E089819A810E94A40CFF24F39425
:100E1000892B09F0F12CCE0101960E944103FF209D
:100E200009F46BC0E0911C02F0911D02099562E18A
:100E300072E0CE0141960E94F9028E898F938D89CE
:100E40008F93DF92CF921F926F921F930F930E9406
:100E5000B40CB801CE0109960E94300369E471E038
:100E6000CE0101960E943003BE01675F7F4FCE0125
:100E700001960E94A802BE016F5E7F4F0E94A802E9
:100E8000DC0114964D915C9115976D917C918AE5EA
:100E900091E00E94B500CE0101960E944103CE016F
:100EA00009960E944103CE0141960E94410382E1CE
:100EB00092E00E94DC020FB6F894DEBF0FBECDBFF9
:100EC00082E00E94B801019711F47092590183E009
:100ED0000E94B801019711F47092580184E00E94B9
:100EE000B801019711F4709257010E941F018823E5
:100EF00009F475CF0E94350464CF66E072E0CE013C
:100F000085960E94F902BE016B5D7F4FCE018E96E1
:100F10000E944903EFA5F8A98091FA019091FB0185
:100F20008E179F0741F064817581CE0185960E94DE
:100F3000020297FF6AC0BE016B5D7F4FCE014196F2
:100F40000E94F902188E1F8AE090FF01F0900002C3
:100F5000BE016F5E7F4FCE0101960E94F9028F891C
:100F6000988D98878F83BE016F5F7F4FCE01099662
:100F7000F7010995BE01675F7F4FCE018B960E94F6
:100F80004903CE0109960E944103CE0101960E94B9
:100F90004103ECA5FDA58091FA019091FB018E170C
:100FA0009F0709F06AC08091FC019091FD01892B97
:100FB000D1F586E090E00E94B90A7C01BE016F5E27
:100FC0007F4F0E940B03F092F901E092F801E0914B
:100FD000FA01F091FB01F182E082D70111961C9297
:100FE0001E921396FC93EE931297B092FD01A0927D
:100FF000FC01E091FA01F091FB018080918098AAB8
:101000008FA6CE0141960E944103EFA5F8A9048066
:10101000F581E02D0680F781E02D0995CE018596BA
:101020000E9441034DCF86E090E00E94B90A7C0106
:10103000BE016F5E7F4F0E940B03E091FA01F091B9
:10104000FB0180819181D70111969C938E93139619
:10105000FC93EE931297A081B1811396FC92EE92CD
:101060001297F182E0828091FC019091FD0101963E
:101070009093FD018093FC01BCCF8090FF01909084
:101080000002E480F580B701CE0109960E94F902C2
:10109000F70186819781988B8F87BE01675F7F4FAD
:1010A000CE014F96F4010995E090FF01F090000207
:1010B000BE016F5E7F4FCE0101960E94F9028F89BB
:1010C000988D98878F83BE016F5F7F4FC801F701AE
:1010D0000995BE01615E7F4FC8010E9402024C016A
:1010E000C8010E944103CE0101960E944103CE0136
:1010F0004F960E944103CE0109960E944103ECA441
:10110000FDA497FE2BC086E090E00E94B90A4C0136
:10111000BE016F5E7F4F0E940B03D7018D919C91A2
:101120001197F40191838083F382E282892B89F401
:101130009092F9018092F801F7019182808280916A
:10114000FC019091FD0101969093FD018093FC01BB
:1011500056CFED91FC9193828282EECF47014FCF23
:10116000CF93DF9382E192E00E9441038CE092E012
:101170000E94410386E092E00E944103E091F80161
:10118000F091F9018091FC019091FD01892B71F1A1
:101190000280F381E02DF093F901E093F8010190D2
:1011A000F081E02DC481D581209731F0CE010E94DD
:1011B0004103CE010E94550BE091F801F091F90135
:1011C00080819181009711F00E94550BE091F80108
:1011D000F091F901118210828091FC019091FD0142
:1011E00001979093FD018093FC01C8CFC481D58104
:1011F000209731F0CE010E944103CE010E94550B91
:101200008091F8019091F901009721F0DF91CF9141
:101210000C94550BDF91CF910895B0E0A0E0E3E18D
:10122000F9E00C946E0A5C016B017A01611571059D
:1012300019F0FB0191838083E114F10451F0C7019F
:101240000297839730F040E030E020E090E072C0F9
:101250005E01E5012196F5011081812F90E00E9449
:10126000240A892BA9F71D3201F52196F501118178
:1012700001E0E114F10409F4DAC0F0E1EF16F10441
:1012800009F082C0103359F488818F7D883509F0C8
:1012900076C0198122960260F0E1EF2EF12C812CAC
:1012A000912CA12C88E0B82E8CC01B3221F4E501D2
:1012B0002296F501118100E0DCCFEAE0EE16F104A0
:1012C00009F4BBC0F0E1EF16F10409F06DC0E7CFFF
:1012D00078E0E72EF12C812C912CA12C60E1B62E28
:1012E00070C03FE9310F3A3128F439EA332E80C01B
:1012F00021E09AC0302F3170C114D10431F0222383
:1013000009F12197F601D183C08327FF21C060E056
:1013100070E080E090E8311104C06FEF7FEF8FEF55
:101320009FE722E230E030931F0220931E02462FF7
:10133000372F282F642F732F822FCDB7DEB7E1E12F
:101340000C948A0A01FF04C02297F601D183C0835E
:10135000332341F090958095709561957F4F8F4F25
:101360009F4FE5CF97FFE3CF82E290E090931F027B
:1013700080931E026FEF7FEF8FEF9FE7D8CF10E3D0
:10138000E114F10409F4A4CF28E0E216F10409F411
:10139000A2CF0CF092CF812C912CA12CE0E4BE2E98
:1013A00082E0E816F10469F060E070E080E090E827
:1013B00097010F2C000C440B550B0E94400A490169
:1013C0005A0120E060E070E0CB0127010F2C000CF7
:1013D00066087708FE0150ED352E310E39E03315E1
:1013E00040F43FEB310F3A3108F07BCF49EC342E1B
:1013F000310E3E141F040CF07DCF27FD15C086165C
:101400009706A806B90678F0A30192010E94300A57
:10141000630D711D811D911D61307105810520E8ED
:10142000920708F465CF2FEF21961081D3CF1033A8
:1014300009F42ACF2AE0E22EF12C9CEC892E982C7C
:10144000A82C9CE0B92EBDCF91110C942D0A8032AE
:1014500019F089508550C8F708959927882708956D
:10146000DB018F939F930E94620ABF91AF91A29F6D
:10147000800D911DA39F900DB29F900D1124089592
:10148000A1E21A2EAA1BBB1BFD010DC0AA1FBB1F88
:10149000EE1FFF1FA217B307E407F50720F0A21BFA
:1014A000B30BE40BF50B661F771F881F991F1A9467
:1014B00069F760957095809590959B01AC01BD0191
:1014C000CF0108950E94A40AA59F900DB49F900D8E
:1014D000A49F800D911D112408952F923F924F9249
:1014E0005F926F927F928F929F92AF92BF92CF92B4
:1014F000DF92EF92FF920F931F93CF93DF93CDB7BD
:10150000DEB7CA1BDB0B0FB6F894DEBF0FBECDBF34
:1015100009942A88398848885F846E847D848C8405
:101520009B84AA84B984C884DF80EE80FD800C810E
:101530001B81AA81B981CE0FD11D0FB6F894DEBFF1
:101540000FBECDBFED010895A29FB001B39FC001B2
:10155000A39F700D811D1124911DB29F700D811DDF
:101560001124911D0895EE0FFF1F0590F491E02DB9
:1015700009940F931F93CF93DF938230910510F45A
:1015800082E090E0E0912202F091230230E020E03E
:10159000B0E0A0E0309799F42115310509F44AC074
:1015A000281B390B24303105D8F58A819B816115C0
:1015B000710589F1FB0193838283FE0111C0408193
:1015C00051810281138148175907E0F048175907E4
:1015D00099F4109761F012960C93129713961C933E
:1015E0003296CF01DF91CF911F910F910895009313
:1015F000220210932302F4CF2115310551F0421736
:10160000530738F0A901DB019A01BD01DF01F801A0
:10161000C1CFEF01F9CF9093230280932202CDCF67
:10162000FE01E20FF31F8193919322503109398318
:101630002883D7CF2091200230912102232B41F41F
:101640002091020130910301309321022093200266
:1016500020910001309101012115310541F42DB790
:101660003EB74091040150910501241B350BE091D8
:101670002002F0912102E217F307A0F42E1B3F0B8A
:101680002817390778F0AC014E5F5F4F24173507F4
:1016900048F04E0F5F1F5093210240932002819328
:1016A00091939FCFF0E0E0E09CCFCF93DF93009742
:1016B000E9F0FC01329713821282A0912202B091CC
:1016C0002302ED0130E020E01097A1F42081318168
:1016D000820F931F20912002309121022817390791
:1016E00009F061C0F0932102E0932002DF91CF91D5
:1016F0000895EA01CE17DF07E8F54A815B819E0174
:1017000041155105B1F7E901FB83EA8349915991EC
:10171000C40FD51FEC17FD0761F4808191810296FB
:10172000840F951FE90199838883828193819B832C
:101730008A83F0E0E0E012968D919C9113970097D8
:10174000B9F52D913C911197CD010296820F931F0F
:1017500020912002309121022817390739F630975D
:1017600051F51092230210922202B0932102A0930D
:101770002002BCCFD383C28340815181840F951F47
:10178000C817D90761F44E5F5F4F88819981480F70
:10179000591F518340838A819B81938382832115C2
:1017A000310509F0B0CFF0932302E09322029ECFDF
:1017B000FD01DC01C0CF13821282D7CFB0E0A0E0E0
:1017C000E4EEFBE00C946F0A8C01009751F4CB011E
:1017D0000E94B90A8C01C801CDB7DEB7E0E10C94D4
:1017E0008B0AFC01E60FF71F9C0122503109E2171A
:1017F000F30708F49DC0D901CD91DC911197C6176C
:10180000D70798F0C530D10530F3CE01049786177D
:10181000970708F3C61BD70B2297C193D1936D93FB
:101820007C93CF010E94550BD6CF5B01AC1ABD0A49
:101830004C018C0E9D1EA0912202B0912302512CCE
:10184000412CF12CE12C109731F5809120029091E0
:1018500021028815990509F05CC04616570608F064
:1018600058C08091000190910101009741F48DB71B
:101870009EB74091040150910501841B950BE81718
:10188000F90708F055C0F0932102E0932002F90116
:1018900071836083A0CF8D919C91119712966C906B
:1018A000129713967C901397A815B90559F56C01FA
:1018B00042E0C40ED11CCA14DB0420F1AC014A1969
:1018C0005B09DA011296159780F062827382518368
:1018D0004083D9016D937C93E114F10471F0D70139
:1018E0001396FC93EE93129776CF22968C0F9D1F42
:1018F000F90191838083F301EFCFF0932302E0930A
:10190000220269CF4816590608F42C017D01D30143
:101910009ACFCB010E94B90A7C01009749F0AE0131
:10192000B8010E949B0CC8010E94550B870153CF40
:1019300010E000E050CFFB01DC0102C001900D92ED
:1019400041505040D8F70895FB01DC018D91019082
:1019500080190110D9F3990B0895FB01DC01019066
:101960000D920020E1F70895AEE0B0E0EAEBFCE074
:101970000C947B0A0D891E898F89988D26E02C8313
:101980001A83098397FF02C080E090E801979E8345
:101990008D83AE01455E5F4F698D7A8DCE010196D4
:1019A0000E94E40C4D815E8157FD0AC02F8138856D
:1019B000421753070CF49A01020F131FF80110820B
:1019C0002E96E4E00C94970AABE0B0E0EAEEFCE07F
:1019D0000C946D0A7C013B018A01FC01178216827E
:1019E000838181FFC8C1CE0101965C01F70193811B
:1019F000F30193FD859193FF81913F01882309F4C1
:101A000053C1853239F493FD859193FF81913F0154
:101A1000853229F4B70190E00E94D40EE7CF912CD3
:101A2000212C312CFFE1F31538F08B3211F190F4B9
:101A3000803209F1833229F137FC3CC020ED280FB8
:101A40002A3050F536FE20C08AE0989E200D1124E1
:101A5000922E06C08D3291F0803371F7689430F881
:101A6000F30193FD859193FF81913F018111DACFBD
:101A700021C0689431F8689432F8F2CF689433F852
:101A8000EFCF689434F8ECCFEAE02E9E200D1124BD
:101A9000222E689435F8E4CF8E3229F436FC04C146
:101AA000689436F8DDCF8C3619F4689437F8D8CFBF
:101AB0008836B1F2982F9F7D95549330E0F08336AD
:101AC000A1F18337C1F1833509F063C02801F2E049
:101AD0004F0E511CF801C080D180692D70E036FC9A
:101AE00002C06FEF7FEFC6010E94BE0E4C016894EA
:101AF00037F882010AC00C5F1F4FFFE3F983882487
:101B00008394912C6501E89437F833FE2DC0522C54
:101B10008114910471F5552009F468CFB70180E272
:101B200090E00E94D40E5A94F6CFF8018081898308
:101B30000E5F1F4FE4CF2801F2E04F0E511CF80159
:101B4000C080D180692D70E036FC02C06FEF7FEF5E
:101B5000C6010E94C90E4C018201D5CFB70180E2B7
:101B600090E00E94D40E2A942814190409F0B0F7CA
:101B7000CECFF60137FC859137FE81916F01B70119
:101B800090E00E94D40E51105A94F1E08F1A9108FF
:101B9000BFCF843619F0893609F077C0F80137FED7
:101BA0006BC060817181828193810C5F1F4FF32D27
:101BB000FF763F2E97FF09C09095809570956195AF
:101BC0007F4F8F4F9F4F689437F82AE030E0A50190
:101BD0000E94040FC82ECA188C2C432C36FE0CC051
:101BE000E89440F8C91440F434FE05C032FC03C048
:101BF000F32DFE7E4F2E892C44FE95C0FE01EC0D88
:101C0000F11D8081803309F087C0242D297E422E6A
:101C1000842D8870582E43FC95C040FE8FC09C2CAC
:101C2000821418F42C0C922C981844FE91C0B70121
:101C300080E390E00E94D40E42FE09C088E790E065
:101C400041FE02C088E590E0B7010E94D40EC9149D
:101C500008F48AC0CA94D12C9FEFC91AD90ACA0CB9
:101C6000DB1CF60182916F01B70190E00E94D40E57
:101C7000AC14BD04B1F74FCF60817181072E000C09
:101C8000880B990B0E5F1F4F92CFD32CE894D4F89A
:101C90002AE030E0853739F1232D297FD22E8F3687
:101CA00001F148F48835A9F0F701868197812B96D8
:101CB000E2E10C94890A803749F08837A9F7D4FE0D
:101CC00002C06894D2F820E130E00DC06894D4F8E6
:101CD000F6CF34FE03C0822F8660D82E20E132E09A
:101CE00002C028E030E0F801D7FE0FC060817181AA
:101CF000828193810C5F1F4FA5010E94040FC82EA3
:101D0000CA183D2CE89437F867CF6081718190E064
:101D100080E00E5F1F4FF0CF42FC02C0839478CF6B
:101D20008394839475CF842D867809F471CFF6CF90
:101D3000B70180E290E00E94D40E83948214C0F335
:101D4000512C73CF522C5818821408F46ECFF8CF50
:101D5000842D867809F47BCF8BE241FE80E247FC3C
:101D60008DE2B70190E071CFB70180E390E00E946F
:101D7000D40E9A946CCF8FEF9FEF99CFFC01059012
:101D8000615070400110D8F7809590958E0F9F1F7D
:101D90000895FC016150704001900110D8F78095C2
:101DA00090958E0F9F1F08950F931F93CF93DF93EE
:101DB000182F092FEB018B8181FD09C01FEF0FEF59
:101DC000812F902FDF91CF911F910F91089582FF66
:101DD00014C02E813F818C819D81281739073CF4E6
:101DE000E881F981CF0101969983888310838E81E0
:101DF0009F8101969F838E83E3CFE885F985812FAC
:101E00000995892BA1F3DACFFA01AA27283051F1DD
:101E1000203181F1E8946F936E7F6E5F7F4F8F4F1B
:101E20009F4FAF4FB1E03ED0B4E03CD0670F781F7A
:101E3000891F9A1FA11D680F791F8A1F911DA11D5F
:101E40006A0F711D811D911DA11D20D009F4689498
:101E50003F912AE0269F11243019305D3193DEF640
:101E6000CF010895462F4770405D4193B3E00FD0F6
:101E7000C9F7F6CF462F4F70405D4A3318F0495DE1
:101E800031FD4052419302D0A9F7EACFB4E0A695C4
:101E90009795879577956795BA95C9F700976105E6
:101EA000710508959B01AC010A2E0694579547953C
:101EB00037952795BA95C9F7620F731F841F951F31
:101EC000A01D089510E0C2E6D0E004C0FE010E940B
:0E1ED000B30A2196C336D107C9F7F894FFCFA5
:101EDE00000024028000000000004B01B500E2006B
:101EEE0098011301F10005013B0076696167656D8C
:101EFE002831290076696167656D28322900766977
:101F0E006167656D28332900676574506572636576
:0E1F1E007074730025303258006666666500E8
:00000001FF
